{
  "_format": "hh-sol-artifact-1",
  "contractName": "NFTMarketplace",
  "sourceName": "contracts/NFTMarketplace.sol",
  "abi": [
    {
      "inputs": [],
      "stateMutability": "nonpayable",
      "type": "constructor"
    },
    {
      "anonymous": false,
      "inputs": [
        {
          "indexed": true,
          "internalType": "address",
          "name": "owner",
          "type": "address"
        },
        {
          "indexed": true,
          "internalType": "address",
          "name": "approved",
          "type": "address"
        },
        {
          "indexed": true,
          "internalType": "uint256",
          "name": "tokenId",
          "type": "uint256"
        }
      ],
      "name": "Approval",
      "type": "event"
    },
    {
      "anonymous": false,
      "inputs": [
        {
          "indexed": true,
          "internalType": "address",
          "name": "owner",
          "type": "address"
        },
        {
          "indexed": true,
          "internalType": "address",
          "name": "operator",
          "type": "address"
        },
        {
          "indexed": false,
          "internalType": "bool",
          "name": "approved",
          "type": "bool"
        }
      ],
      "name": "ApprovalForAll",
      "type": "event"
    },
    {
      "anonymous": false,
      "inputs": [
        {
          "indexed": true,
          "internalType": "uint256",
          "name": "tokenId",
          "type": "uint256"
        },
        {
          "indexed": false,
          "internalType": "uint256",
          "name": "price",
          "type": "uint256"
        }
      ],
      "name": "NFTPriceSet",
      "type": "event"
    },
    {
      "anonymous": false,
      "inputs": [
        {
          "indexed": true,
          "internalType": "uint256",
          "name": "tokenId",
          "type": "uint256"
        },
        {
          "indexed": true,
          "internalType": "address",
          "name": "buyer",
          "type": "address"
        },
        {
          "indexed": false,
          "internalType": "uint256",
          "name": "price",
          "type": "uint256"
        }
      ],
      "name": "NFTSold",
      "type": "event"
    },
    {
      "anonymous": false,
      "inputs": [
        {
          "indexed": true,
          "internalType": "bytes32",
          "name": "role",
          "type": "bytes32"
        },
        {
          "indexed": true,
          "internalType": "bytes32",
          "name": "previousAdminRole",
          "type": "bytes32"
        },
        {
          "indexed": true,
          "internalType": "bytes32",
          "name": "newAdminRole",
          "type": "bytes32"
        }
      ],
      "name": "RoleAdminChanged",
      "type": "event"
    },
    {
      "anonymous": false,
      "inputs": [
        {
          "indexed": true,
          "internalType": "bytes32",
          "name": "role",
          "type": "bytes32"
        },
        {
          "indexed": true,
          "internalType": "address",
          "name": "account",
          "type": "address"
        },
        {
          "indexed": true,
          "internalType": "address",
          "name": "sender",
          "type": "address"
        }
      ],
      "name": "RoleGranted",
      "type": "event"
    },
    {
      "anonymous": false,
      "inputs": [
        {
          "indexed": true,
          "internalType": "bytes32",
          "name": "role",
          "type": "bytes32"
        },
        {
          "indexed": true,
          "internalType": "address",
          "name": "account",
          "type": "address"
        },
        {
          "indexed": true,
          "internalType": "address",
          "name": "sender",
          "type": "address"
        }
      ],
      "name": "RoleRevoked",
      "type": "event"
    },
    {
      "anonymous": false,
      "inputs": [
        {
          "indexed": true,
          "internalType": "uint256",
          "name": "id",
          "type": "uint256"
        },
        {
          "indexed": true,
          "internalType": "address",
          "name": "owner",
          "type": "address"
        },
        {
          "indexed": true,
          "internalType": "address",
          "name": "creator",
          "type": "address"
        },
        {
          "indexed": false,
          "internalType": "uint256",
          "name": "price",
          "type": "uint256"
        },
        {
          "indexed": false,
          "internalType": "bool",
          "name": "isListed",
          "type": "bool"
        }
      ],
      "name": "TokenListedSuccess",
      "type": "event"
    },
    {
      "anonymous": false,
      "inputs": [
        {
          "indexed": true,
          "internalType": "address",
          "name": "from",
          "type": "address"
        },
        {
          "indexed": true,
          "internalType": "address",
          "name": "to",
          "type": "address"
        },
        {
          "indexed": true,
          "internalType": "uint256",
          "name": "tokenId",
          "type": "uint256"
        }
      ],
      "name": "Transfer",
      "type": "event"
    },
    {
      "inputs": [],
      "name": "ADMIN_ROLE",
      "outputs": [
        {
          "internalType": "bytes32",
          "name": "",
          "type": "bytes32"
        }
      ],
      "stateMutability": "view",
      "type": "function"
    },
    {
      "inputs": [],
      "name": "BUYER_ROLE",
      "outputs": [
        {
          "internalType": "bytes32",
          "name": "",
          "type": "bytes32"
        }
      ],
      "stateMutability": "view",
      "type": "function"
    },
    {
      "inputs": [],
      "name": "CONTRACT_FEE_PERCENT",
      "outputs": [
        {
          "internalType": "uint256",
          "name": "",
          "type": "uint256"
        }
      ],
      "stateMutability": "view",
      "type": "function"
    },
    {
      "inputs": [],
      "name": "CREATOR_ROLE",
      "outputs": [
        {
          "internalType": "bytes32",
          "name": "",
          "type": "bytes32"
        }
      ],
      "stateMutability": "view",
      "type": "function"
    },
    {
      "inputs": [],
      "name": "DEFAULT_ADMIN_ROLE",
      "outputs": [
        {
          "internalType": "bytes32",
          "name": "",
          "type": "bytes32"
        }
      ],
      "stateMutability": "view",
      "type": "function"
    },
    {
      "inputs": [],
      "name": "SELLER_ROLE",
      "outputs": [
        {
          "internalType": "bytes32",
          "name": "",
          "type": "bytes32"
        }
      ],
      "stateMutability": "view",
      "type": "function"
    },
    {
      "inputs": [
        {
          "internalType": "address",
          "name": "to",
          "type": "address"
        },
        {
          "internalType": "uint256",
          "name": "tokenId",
          "type": "uint256"
        }
      ],
      "name": "approve",
      "outputs": [],
      "stateMutability": "nonpayable",
      "type": "function"
    },
    {
      "inputs": [
        {
          "internalType": "address",
          "name": "_address",
          "type": "address"
        }
      ],
      "name": "assignAdminRole",
      "outputs": [],
      "stateMutability": "nonpayable",
      "type": "function"
    },
    {
      "inputs": [
        {
          "internalType": "address",
          "name": "_address",
          "type": "address"
        }
      ],
      "name": "assignBuyerRole",
      "outputs": [],
      "stateMutability": "nonpayable",
      "type": "function"
    },
    {
      "inputs": [
        {
          "internalType": "address",
          "name": "_address",
          "type": "address"
        }
      ],
      "name": "assignCreatorRole",
      "outputs": [],
      "stateMutability": "nonpayable",
      "type": "function"
    },
    {
      "inputs": [
        {
          "internalType": "address",
          "name": "_address",
          "type": "address"
        }
      ],
      "name": "assignSellerRole",
      "outputs": [],
      "stateMutability": "nonpayable",
      "type": "function"
    },
    {
      "inputs": [
        {
          "internalType": "address",
          "name": "owner",
          "type": "address"
        }
      ],
      "name": "balanceOf",
      "outputs": [
        {
          "internalType": "uint256",
          "name": "",
          "type": "uint256"
        }
      ],
      "stateMutability": "view",
      "type": "function"
    },
    {
      "inputs": [
        {
          "internalType": "address",
          "name": "",
          "type": "address"
        }
      ],
      "name": "balances",
      "outputs": [
        {
          "internalType": "uint256",
          "name": "",
          "type": "uint256"
        }
      ],
      "stateMutability": "view",
      "type": "function"
    },
    {
      "inputs": [
        {
          "internalType": "uint256",
          "name": "_tokenId",
          "type": "uint256"
        }
      ],
      "name": "buyNFT",
      "outputs": [],
      "stateMutability": "payable",
      "type": "function"
    },
    {
      "inputs": [
        {
          "internalType": "string",
          "name": "tokenURI",
          "type": "string"
        },
        {
          "internalType": "uint256",
          "name": "price",
          "type": "uint256"
        }
      ],
      "name": "createAndListToken",
      "outputs": [
        {
          "internalType": "uint256",
          "name": "",
          "type": "uint256"
        }
      ],
      "stateMutability": "payable",
      "type": "function"
    },
    {
      "inputs": [],
      "name": "getAllNfts",
      "outputs": [
        {
          "components": [
            {
              "internalType": "uint256",
              "name": "tokenId",
              "type": "uint256"
            },
            {
              "internalType": "address payable",
              "name": "owner",
              "type": "address"
            },
            {
              "internalType": "address payable",
              "name": "creator",
              "type": "address"
            },
            {
              "internalType": "uint256",
              "name": "price",
              "type": "uint256"
            },
            {
              "internalType": "bool",
              "name": "isListed",
              "type": "bool"
            }
          ],
          "internalType": "struct NFTMarketplace.ListedToken[]",
          "name": "",
          "type": "tuple[]"
        }
      ],
      "stateMutability": "view",
      "type": "function"
    },
    {
      "inputs": [
        {
          "internalType": "uint256",
          "name": "tokenId",
          "type": "uint256"
        }
      ],
      "name": "getApproved",
      "outputs": [
        {
          "internalType": "address",
          "name": "",
          "type": "address"
        }
      ],
      "stateMutability": "view",
      "type": "function"
    },
    {
      "inputs": [],
      "name": "getMyNfts",
      "outputs": [
        {
          "components": [
            {
              "internalType": "uint256",
              "name": "tokenId",
              "type": "uint256"
            },
            {
              "internalType": "address payable",
              "name": "owner",
              "type": "address"
            },
            {
              "internalType": "address payable",
              "name": "creator",
              "type": "address"
            },
            {
              "internalType": "uint256",
              "name": "price",
              "type": "uint256"
            },
            {
              "internalType": "bool",
              "name": "isListed",
              "type": "bool"
            }
          ],
          "internalType": "struct NFTMarketplace.ListedToken[]",
          "name": "",
          "type": "tuple[]"
        }
      ],
      "stateMutability": "view",
      "type": "function"
    },
    {
      "inputs": [
        {
          "internalType": "bytes32",
          "name": "role",
          "type": "bytes32"
        }
      ],
      "name": "getRoleAdmin",
      "outputs": [
        {
          "internalType": "bytes32",
          "name": "",
          "type": "bytes32"
        }
      ],
      "stateMutability": "view",
      "type": "function"
    },
    {
      "inputs": [],
      "name": "getTokenIdCounter",
      "outputs": [
        {
          "internalType": "uint256",
          "name": "",
          "type": "uint256"
        }
      ],
      "stateMutability": "view",
      "type": "function"
    },
    {
      "inputs": [
        {
          "internalType": "uint256",
          "name": "_tokenId",
          "type": "uint256"
        }
      ],
      "name": "getTokenURI",
      "outputs": [
        {
          "internalType": "string",
          "name": "",
          "type": "string"
        }
      ],
      "stateMutability": "view",
      "type": "function"
    },
    {
      "inputs": [
        {
          "internalType": "bytes32",
          "name": "role",
          "type": "bytes32"
        },
        {
          "internalType": "address",
          "name": "account",
          "type": "address"
        }
      ],
      "name": "grantRole",
      "outputs": [],
      "stateMutability": "nonpayable",
      "type": "function"
    },
    {
      "inputs": [
        {
          "internalType": "bytes32",
          "name": "role",
          "type": "bytes32"
        },
        {
          "internalType": "address",
          "name": "account",
          "type": "address"
        }
      ],
      "name": "hasRole",
      "outputs": [
        {
          "internalType": "bool",
          "name": "",
          "type": "bool"
        }
      ],
      "stateMutability": "view",
      "type": "function"
    },
    {
      "inputs": [
        {
          "internalType": "address",
          "name": "owner",
          "type": "address"
        },
        {
          "internalType": "address",
          "name": "operator",
          "type": "address"
        }
      ],
      "name": "isApprovedForAll",
      "outputs": [
        {
          "internalType": "bool",
          "name": "",
          "type": "bool"
        }
      ],
      "stateMutability": "view",
      "type": "function"
    },
    {
      "inputs": [],
      "name": "name",
      "outputs": [
        {
          "internalType": "string",
          "name": "",
          "type": "string"
        }
      ],
      "stateMutability": "view",
      "type": "function"
    },
    {
      "inputs": [
        {
          "internalType": "uint256",
          "name": "",
          "type": "uint256"
        }
      ],
      "name": "nftPrices",
      "outputs": [
        {
          "internalType": "uint256",
          "name": "",
          "type": "uint256"
        }
      ],
      "stateMutability": "view",
      "type": "function"
    },
    {
      "inputs": [],
      "name": "owner",
      "outputs": [
        {
          "internalType": "address payable",
          "name": "",
          "type": "address"
        }
      ],
      "stateMutability": "view",
      "type": "function"
    },
    {
      "inputs": [
        {
          "internalType": "uint256",
          "name": "tokenId",
          "type": "uint256"
        }
      ],
      "name": "ownerOf",
      "outputs": [
        {
          "internalType": "address",
          "name": "",
          "type": "address"
        }
      ],
      "stateMutability": "view",
      "type": "function"
    },
    {
      "inputs": [
        {
          "internalType": "bytes32",
          "name": "role",
          "type": "bytes32"
        },
        {
          "internalType": "address",
          "name": "account",
          "type": "address"
        }
      ],
      "name": "renounceRole",
      "outputs": [],
      "stateMutability": "nonpayable",
      "type": "function"
    },
    {
      "inputs": [
        {
          "internalType": "address",
          "name": "_address",
          "type": "address"
        },
        {
          "internalType": "bytes32",
          "name": "_role",
          "type": "bytes32"
        }
      ],
      "name": "revokeRole",
      "outputs": [],
      "stateMutability": "nonpayable",
      "type": "function"
    },
    {
      "inputs": [
        {
          "internalType": "bytes32",
          "name": "role",
          "type": "bytes32"
        },
        {
          "internalType": "address",
          "name": "account",
          "type": "address"
        }
      ],
      "name": "revokeRole",
      "outputs": [],
      "stateMutability": "nonpayable",
      "type": "function"
    },
    {
      "inputs": [
        {
          "internalType": "address",
          "name": "from",
          "type": "address"
        },
        {
          "internalType": "address",
          "name": "to",
          "type": "address"
        },
        {
          "internalType": "uint256",
          "name": "tokenId",
          "type": "uint256"
        }
      ],
      "name": "safeTransferFrom",
      "outputs": [],
      "stateMutability": "nonpayable",
      "type": "function"
    },
    {
      "inputs": [
        {
          "internalType": "address",
          "name": "from",
          "type": "address"
        },
        {
          "internalType": "address",
          "name": "to",
          "type": "address"
        },
        {
          "internalType": "uint256",
          "name": "tokenId",
          "type": "uint256"
        },
        {
          "internalType": "bytes",
          "name": "_data",
          "type": "bytes"
        }
      ],
      "name": "safeTransferFrom",
      "outputs": [],
      "stateMutability": "nonpayable",
      "type": "function"
    },
    {
      "inputs": [
        {
          "internalType": "uint256",
          "name": "_tokenId",
          "type": "uint256"
        }
      ],
      "name": "sellNfts",
      "outputs": [],
      "stateMutability": "payable",
      "type": "function"
    },
    {
      "inputs": [
        {
          "internalType": "address",
          "name": "operator",
          "type": "address"
        },
        {
          "internalType": "bool",
          "name": "approved",
          "type": "bool"
        }
      ],
      "name": "setApprovalForAll",
      "outputs": [],
      "stateMutability": "nonpayable",
      "type": "function"
    },
    {
      "inputs": [
        {
          "internalType": "uint256",
          "name": "_tokenId",
          "type": "uint256"
        },
        {
          "internalType": "uint256",
          "name": "_price",
          "type": "uint256"
        }
      ],
      "name": "setPrice",
      "outputs": [],
      "stateMutability": "nonpayable",
      "type": "function"
    },
    {
      "inputs": [
        {
          "internalType": "bytes4",
          "name": "interfaceId",
          "type": "bytes4"
        }
      ],
      "name": "supportsInterface",
      "outputs": [
        {
          "internalType": "bool",
          "name": "",
          "type": "bool"
        }
      ],
      "stateMutability": "view",
      "type": "function"
    },
    {
      "inputs": [],
      "name": "symbol",
      "outputs": [
        {
          "internalType": "string",
          "name": "",
          "type": "string"
        }
      ],
      "stateMutability": "view",
      "type": "function"
    },
    {
      "inputs": [
        {
          "internalType": "uint256",
          "name": "tokenId",
          "type": "uint256"
        }
      ],
      "name": "tokenURI",
      "outputs": [
        {
          "internalType": "string",
          "name": "",
          "type": "string"
        }
      ],
      "stateMutability": "view",
      "type": "function"
    },
    {
      "inputs": [
        {
          "internalType": "address",
          "name": "from",
          "type": "address"
        },
        {
          "internalType": "address",
          "name": "to",
          "type": "address"
        },
        {
          "internalType": "uint256",
          "name": "tokenId",
          "type": "uint256"
        }
      ],
      "name": "transferFrom",
      "outputs": [],
      "stateMutability": "nonpayable",
      "type": "function"
    },
    {
      "inputs": [],
      "name": "withdraw",
      "outputs": [],
      "stateMutability": "nonpayable",
      "type": "function"
    }
  ],
  "bytecode": "0x608060405266038d7ea4c68000600b553480156200001c57600080fd5b506040518060400160405280600e81526020016d4e46544d61726b6574706c61636560901b815250604051806040016040528060048152602001634e46544d60e01b8152508160019081620000729190620001f8565b506002620000818282620001f8565b5050600160085550600a80546001600160a01b03191633908117909155620000ac90600090620000b2565b620002c4565b6000828152602081815260408083206001600160a01b038516845290915290205460ff166200014f576000828152602081815260408083206001600160a01b03851684529091529020805460ff191660011790556200010e3390565b6001600160a01b0316816001600160a01b0316837f2f8788117e7eff1d82e926ec794901d17c78024a50270940304540a733656f0d60405160405180910390a45b5050565b634e487b7160e01b600052604160045260246000fd5b600181811c908216806200017e57607f821691505b6020821081036200019f57634e487b7160e01b600052602260045260246000fd5b50919050565b601f821115620001f357600081815260208120601f850160051c81016020861015620001ce5750805b601f850160051c820191505b81811015620001ef57828155600101620001da565b5050505b505050565b81516001600160401b0381111562000214576200021462000153565b6200022c8162000225845462000169565b84620001a5565b602080601f8311600181146200026457600084156200024b5750858301515b600019600386901b1c1916600185901b178555620001ef565b600085815260208120601f198616915b82811015620002955788860151825594840194600190910190840162000274565b5085821015620002b45787850151600019600388901b60f8161c191681555b5050505050600190811b01905550565b612f9d80620002d46000396000f3fe6080604052600436106102465760003560e01c806375b238fc11610139578063b88d4fde116100b6578063dac178381161007a578063dac17838146106a4578063dbe4613d146106b7578063dbfd4b98146106cc578063e985e9c5146106e1578063ea8e8ec21461072a578063f7d975771461074a57600080fd5b8063b88d4fde146105f7578063b96572a314610617578063c87b56dd14610637578063d547741f14610657578063d9f10a2b1461067757600080fd5b806390587ef5116100fd57806390587ef51461057857806391d148541461058d57806395d89b41146105ad578063a217fddf146105c2578063a22cb465146105d757600080fd5b806375b238fc146104f95780637a01a1da1461050e5780638aeda25a146105235780638da5cb5b146105385780638fd0765b1461055857600080fd5b806333af252d116101c757806351ed82881161018b57806351ed82881461047e5780635f0bc118146104915780636352211e146104a457806370a08231146104c4578063732e8d73146104e457600080fd5b806333af252d146103e957806336568abe146104095780633bb3a24d146104295780633ccfd60b1461044957806342842e0e1461045e57600080fd5b8063208dd1ff1161020e578063208dd1ff1461031e57806323b872dd1461033e578063248a9ca31461035e57806327e235e31461039c5780632f2ff15d146103c957600080fd5b806301ffc9a71461024b578063047b07bf1461028057806306fdde03146102a2578063081812fc146102c4578063095ea7b3146102fc575b600080fd5b34801561025757600080fd5b5061026b610266366004612757565b61076a565b60405190151581526020015b60405180910390f35b34801561028c57600080fd5b5061029561077b565b6040516102779190612774565b3480156102ae57600080fd5b506102b76108c6565b6040516102779190612840565b3480156102d057600080fd5b506102e46102df366004612853565b610958565b6040516001600160a01b039091168152602001610277565b34801561030857600080fd5b5061031c610317366004612888565b6109e5565b005b34801561032a57600080fd5b5061031c610339366004612888565b610afa565b34801561034a57600080fd5b5061031c6103593660046128b2565b610b15565b34801561036a57600080fd5b5061038e610379366004612853565b60009081526020819052604090206001015490565b604051908152602001610277565b3480156103a857600080fd5b5061038e6103b73660046128ee565b600d6020526000908152604090205481565b3480156103d557600080fd5b5061031c6103e4366004612909565b610b46565b3480156103f557600080fd5b5061031c6104043660046128ee565b610b6c565b34801561041557600080fd5b5061031c610424366004612909565b610bb8565b34801561043557600080fd5b506102b7610444366004612853565b610c32565b34801561045557600080fd5b5061031c610c3d565b34801561046a57600080fd5b5061031c6104793660046128b2565b610db3565b61031c61048c366004612853565b610dce565b61038e61049f3660046129c1565b610fda565b3480156104b057600080fd5b506102e46104bf366004612853565b61118f565b3480156104d057600080fd5b5061038e6104df3660046128ee565b611206565b3480156104f057600080fd5b5061029561128d565b34801561050557600080fd5b5061038e6113ae565b34801561051a57600080fd5b5061038e6113e1565b34801561052f57600080fd5b5061038e6113ff565b34801561054457600080fd5b50600a546102e4906001600160a01b031681565b34801561056457600080fd5b5061031c6105733660046128ee565b61141f565b34801561058457600080fd5b5061038e600581565b34801561059957600080fd5b5061026b6105a8366004612909565b61144d565b3480156105b957600080fd5b506102b7611476565b3480156105ce57600080fd5b5061038e600081565b3480156105e357600080fd5b5061031c6105f2366004612a1a565b611485565b34801561060357600080fd5b5061031c610612366004612a56565b611490565b34801561062357600080fd5b5061031c6106323660046128ee565b6114c8565b34801561064357600080fd5b506102b7610652366004612853565b6114f7565b34801561066357600080fd5b5061031c610672366004612909565b61166d565b34801561068357600080fd5b5061038e610692366004612853565b600c6020526000908152604090205481565b61031c6106b2366004612853565b611693565b3480156106c357600080fd5b5061038e61199c565b3480156106d857600080fd5b5061038e6119bb565b3480156106ed57600080fd5b5061026b6106fc366004612ad2565b6001600160a01b03918216600090815260066020908152604080832093909416825291909152205460ff1690565b34801561073657600080fd5b5061031c6107453660046128ee565b6119cb565b34801561075657600080fd5b5061031c610765366004612afc565b6119f9565b600061077582611aba565b92915050565b6060600061078860095490565b905060008167ffffffffffffffff8111156107a5576107a5612935565b6040519080825280602002602001820160405280156107fe57816020015b6040805160a0810182526000808252602080830182905292820181905260608201819052608082015282526000199092019101816107c35790505b50905060005b828110156108bf576000818152600e6020526040902060010154336001600160a01b03909116036108ad576000818152600e6020908152604091829020825160a0810184528154815260018201546001600160a01b03908116938201939093526002820154909216928201929092526003820154606082015260049091015460ff161515608082015282518390839081106108a1576108a1612b1e565b60200260200101819052505b806108b781612b4a565b915050610804565b5092915050565b6060600180546108d590612b63565b80601f016020809104026020016040519081016040528092919081815260200182805461090190612b63565b801561094e5780601f106109235761010080835404028352916020019161094e565b820191906000526020600020905b81548152906001019060200180831161093157829003601f168201915b5050505050905090565b600061096382611afa565b6109c95760405162461bcd60e51b815260206004820152602c60248201527f4552433732313a20617070726f76656420717565727920666f72206e6f6e657860448201526b34b9ba32b73a103a37b5b2b760a11b60648201526084015b60405180910390fd5b506000908152600560205260409020546001600160a01b031690565b60006109f08261118f565b9050806001600160a01b0316836001600160a01b031603610a5d5760405162461bcd60e51b815260206004820152602160248201527f4552433732313a20617070726f76616c20746f2063757272656e74206f776e656044820152603960f91b60648201526084016109c0565b336001600160a01b0382161480610a795750610a7981336106fc565b610aeb5760405162461bcd60e51b815260206004820152603860248201527f4552433732313a20617070726f76652063616c6c6572206973206e6f74206f7760448201527f6e6572206e6f7220617070726f76656420666f7220616c6c000000000000000060648201526084016109c0565b610af58383611b17565b505050565b6000610b0b8133611b85565b611b85565b610af5828461166d565b610b1f3382611be9565b610b3b5760405162461bcd60e51b81526004016109c090612b9d565b610af5838383611ccf565b600082815260208190526040902060010154610b628133611b85565b610af58383611e6f565b6000610b788133611b85565b6040516b43524541544f525f524f4c4560a01b6020820152610bb490602c015b6040516020818303038152906040528051906020012083610b46565b5050565b6001600160a01b0381163314610c285760405162461bcd60e51b815260206004820152602f60248201527f416363657373436f6e74726f6c3a2063616e206f6e6c792072656e6f756e636560448201526e103937b632b9903337b91039b2b63360891b60648201526084016109c0565b610bb48282611ef3565b6060610775826114f7565b600260085403610c8f5760405162461bcd60e51b815260206004820152601f60248201527f5265656e7472616e637947756172643a207265656e7472616e742063616c6c0060448201526064016109c0565b6002600855336000908152600d6020526040902054610cff5760405162461bcd60e51b815260206004820152602660248201527f4e46544d61726b6574706c6163653a204e6f2062616c616e636520746f20776960448201526574686472617760d01b60648201526084016109c0565b336000818152600d6020526040808220805490839055905190929083908381818185875af1925050503d8060008114610d54576040519150601f19603f3d011682016040523d82523d6000602084013e610d59565b606091505b5050905080610daa5760405162461bcd60e51b815260206004820152601f60248201527f4e46544d61726b6574706c6163653a205472616e73666572206661696c65640060448201526064016109c0565b50506001600855565b610af583838360405180602001604052806000815250611490565b6040516942555945525f524f4c4560b01b6020820152602a0160405160208183030381529060405280519060200120610e0881610b063390565b600260085403610e5a5760405162461bcd60e51b815260206004820152601f60248201527f5265656e7472616e637947756172643a207265656e7472616e742063616c6c0060448201526064016109c0565b60026008556000828152600c6020526040902054610eba5760405162461bcd60e51b815260206004820181905260248201527f4e46544d61726b6574706c6163653a204e4654206e6f7420666f722073616c6560448201526064016109c0565b6000828152600c6020526040902054341015610ee85760405162461bcd60e51b81526004016109c090612bee565b6000610ef38361118f565b6000848152600c6020526040812054919250610f1b6064610f15846005611f58565b90611f6b565b90506000610f298383611f77565b6001600160a01b0385166000908152600d6020526040902054909150610f4f9082611f83565b6001600160a01b0385166000908152600d6020526040808220929092553081522054610f7b9083611f83565b306000908152600d6020526040902055610f96843388611ccf565b604051838152339087907f6329e40c0365262ebbff5ca819385c2b9713dcaa050ed07866d72c441395699a9060200160405180910390a35050600160085550505050565b6040516b43524541544f525f524f4c4560a01b6020820152600090602c016040516020818303038152906040528051906020012061101981610b063390565b611027600980546001019055565b600061103260095490565b905061103e3382611f8f565b6110488186611fa9565b60006110538261118f565b90506001600160a01b03811661107b5760405162461bcd60e51b81526004016109c090612c30565b6000828152600c6020908152604091829020879055815160a08101835284815233918101919091529081016110af8461118f565b6001600160a01b0390811682526020808301899052600160409384018190526000878152600e8352849020855181559185015190820180549184166001600160a01b0319928316179055928401516002820180549190931693168317909155606083015160038201556080909201516004909201805492151560ff199093169290921790915561113e8361118f565b60408051888152600160208201526001600160a01b03929092169185917f9339409317fd01fabff48b703019016f49159bacc801ae872d2ca637d226e4c0910160405180910390a450949350505050565b6000818152600360205260408120546001600160a01b0316806107755760405162461bcd60e51b815260206004820152602960248201527f4552433732313a206f776e657220717565727920666f72206e6f6e657869737460448201526832b73a103a37b5b2b760b91b60648201526084016109c0565b60006001600160a01b0382166112715760405162461bcd60e51b815260206004820152602a60248201527f4552433732313a2062616c616e636520717565727920666f7220746865207a65604482015269726f206164647265737360b01b60648201526084016109c0565b506001600160a01b031660009081526004602052604090205490565b6060600061129a60095490565b905060008167ffffffffffffffff8111156112b7576112b7612935565b60405190808252806020026020018201604052801561131057816020015b6040805160a0810182526000808252602080830182905292820181905260608201819052608082015282526000199092019101816112d55790505b50905060005b828110156108bf576000818152600e6020908152604091829020825160a0810184528154815260018201546001600160a01b03908116938201939093526002820154909216928201929092526003820154606082015260049091015460ff1615156080820152825183908390811061139057611390612b1e565b602002602001018190525080806113a690612b4a565b915050611316565b6040516941444d494e5f524f4c4560b01b6020820152602a015b6040516020818303038152906040528051906020012081565b6040516942555945525f524f4c4560b01b6020820152602a016113c8565b6040516b43524541544f525f524f4c4560a01b6020820152602c016113c8565b600061142b8133611b85565b6040516941444d494e5f524f4c4560b01b6020820152610bb490602a01610b98565b6000918252602082815260408084206001600160a01b0393909316845291905290205460ff1690565b6060600280546108d590612b63565b610bb433838361202d565b61149a3383611be9565b6114b65760405162461bcd60e51b81526004016109c090612b9d565b6114c2848484846120fb565b50505050565b60006114d48133611b85565b6040516a53454c4c45525f524f4c4560a81b6020820152610bb490602b01610b98565b606061150282611afa565b6115685760405162461bcd60e51b815260206004820152603160248201527f45524337323155524953746f726167653a2055524920717565727920666f72206044820152703737b732bc34b9ba32b73a103a37b5b2b760791b60648201526084016109c0565b6000828152600760205260408120805461158190612b63565b80601f01602080910402602001604051908101604052809291908181526020018280546115ad90612b63565b80156115fa5780601f106115cf576101008083540402835291602001916115fa565b820191906000526020600020905b8154815290600101906020018083116115dd57829003601f168201915b50505050509050600061161860408051602081019091526000815290565b9050805160000361162a575092915050565b81511561165c578082604051602001611644929190612c77565b60405160208183030381529060405292505050919050565b6116658461212e565b949350505050565b6000828152602081905260409020600101546116898133611b85565b610af58383611ef3565b6040516a53454c4c45525f524f4c4560a81b6020820152602b01604051602081830303815290604052805190602001206116ce81610b063390565b6000828152600e602052604090206004015460ff1661172f5760405162461bcd60e51b815260206004820152601e60248201527f4e46544d61726b6574706c6163653a204e4654206e6f74206c6973746564000060448201526064016109c0565b6040516a53454c4c45525f524f4c4560a81b602082015261176990602b01604051602081830303815290604052805190602001203361144d565b6117c45760405162461bcd60e51b815260206004820152602660248201527f4e46544d61726b6574706c6163653a2043616c6c6572206973206e6f7420612060448201526539b2b63632b960d11b60648201526084016109c0565b6000828152600e60205260409020600301543410156117f55760405162461bcd60e51b81526004016109c090612bee565b6000828152600e60205260409020600181018054600390920154336001600160a01b0319841681179092556001600160a01b03909216919061183990309086611ccf565b6118433385611b17565b606461185034605f612ca6565b61185a9190612cd3565b6001600160a01b0383166000908152600d602052604081208054909190611882908490612ce7565b9091555060649050611895346005612ca6565b61189f9190612cd3565b306000908152600d6020526040812080549091906118be908490612ce7565b90915550506001600160a01b0382166108fc60646118dd34605f612ca6565b6118e79190612cd3565b6040518115909202916000818181858888f1935050505015801561190f573d6000803e3d6000fd5b50600a546001600160a01b03166108fc606461192c346005612ca6565b6119369190612cd3565b6040518115909202916000818181858888f1935050505015801561195e573d6000803e3d6000fd5b50604051818152339085907f6329e40c0365262ebbff5ca819385c2b9713dcaa050ed07866d72c441395699a9060200160405180910390a350505050565b6040516a53454c4c45525f524f4c4560a81b6020820152602b016113c8565b60006119c660095490565b905090565b60006119d78133611b85565b6040516942555945525f524f4c4560b01b6020820152610bb490602a01610b98565b6040516a53454c4c45525f524f4c4560a81b6020820152602b0160405160208183030381529060405280519060200120611a3481610b063390565b6000611a3f8461118f565b90506001600160a01b038116611a675760405162461bcd60e51b81526004016109c090612c30565b6000848152600c6020526040908190208490555184907f61cbb787cac798aa7b3f71801e31103a59e4f6e2cf21cb9c3696d5bc076060ab90611aac9086815260200190565b60405180910390a250505050565b60006001600160e01b031982166380ac58cd60e01b1480611aeb57506001600160e01b03198216635b5e139f60e01b145b80610775575061077582612205565b6000908152600360205260409020546001600160a01b0316151590565b600081815260056020526040902080546001600160a01b0319166001600160a01b0384169081179091558190611b4c8261118f565b6001600160a01b03167f8c5be1e5ebec7d5bd14f71427d1e84f3dd0314c0f7b2291e5b200ac8c7c3b92560405160405180910390a45050565b611b8f828261144d565b610bb457611ba7816001600160a01b0316601461223a565b611bb283602061223a565b604051602001611bc3929190612cfa565b60408051601f198184030181529082905262461bcd60e51b82526109c091600401612840565b6000611bf482611afa565b611c555760405162461bcd60e51b815260206004820152602c60248201527f4552433732313a206f70657261746f7220717565727920666f72206e6f6e657860448201526b34b9ba32b73a103a37b5b2b760a11b60648201526084016109c0565b6000611c608361118f565b9050806001600160a01b0316846001600160a01b03161480611c9b5750836001600160a01b0316611c9084610958565b6001600160a01b0316145b8061166557506001600160a01b0380821660009081526006602090815260408083209388168352929052205460ff16611665565b826001600160a01b0316611ce28261118f565b6001600160a01b031614611d4a5760405162461bcd60e51b815260206004820152602960248201527f4552433732313a207472616e73666572206f6620746f6b656e2074686174206960448201526839903737ba1037bbb760b91b60648201526084016109c0565b6001600160a01b038216611dac5760405162461bcd60e51b8152602060048201526024808201527f4552433732313a207472616e7366657220746f20746865207a65726f206164646044820152637265737360e01b60648201526084016109c0565b611db7600082611b17565b6001600160a01b0383166000908152600460205260408120805460019290611de0908490612d6f565b90915550506001600160a01b0382166000908152600460205260408120805460019290611e0e908490612ce7565b909155505060008181526003602052604080822080546001600160a01b0319166001600160a01b0386811691821790925591518493918716917fddf252ad1be2c89b69c2b068fc378daa952ba7f163c4a11628f55a4df523b3ef91a4505050565b611e79828261144d565b610bb4576000828152602081815260408083206001600160a01b03851684529091529020805460ff19166001179055611eaf3390565b6001600160a01b0316816001600160a01b0316837f2f8788117e7eff1d82e926ec794901d17c78024a50270940304540a733656f0d60405160405180910390a45050565b611efd828261144d565b15610bb4576000828152602081815260408083206001600160a01b0385168085529252808320805460ff1916905551339285917ff6391f5c32d9c69d2a47ea670b442974b53935d1edc7fd64eb21e047a839171b9190a45050565b6000611f648284612ca6565b9392505050565b6000611f648284612cd3565b6000611f648284612d6f565b6000611f648284612ce7565b610bb48282604051806020016040528060008152506123d6565b611fb282611afa565b6120155760405162461bcd60e51b815260206004820152602e60248201527f45524337323155524953746f726167653a2055524920736574206f66206e6f6e60448201526d32bc34b9ba32b73a103a37b5b2b760911b60648201526084016109c0565b6000828152600760205260409020610af58282612dd0565b816001600160a01b0316836001600160a01b03160361208e5760405162461bcd60e51b815260206004820152601960248201527f4552433732313a20617070726f766520746f2063616c6c65720000000000000060448201526064016109c0565b6001600160a01b03838116600081815260066020908152604080832094871680845294825291829020805460ff191686151590811790915591519182527f17307eab39ab6107e8899845ad3d59bd9653f200f220920489ca2b5937696c31910160405180910390a3505050565b612106848484611ccf565b61211284848484612409565b6114c25760405162461bcd60e51b81526004016109c090612e90565b606061213982611afa565b61219d5760405162461bcd60e51b815260206004820152602f60248201527f4552433732314d657461646174613a2055524920717565727920666f72206e6f60448201526e3732bc34b9ba32b73a103a37b5b2b760891b60648201526084016109c0565b60006121b460408051602081019091526000815290565b905060008151116121d45760405180602001604052806000815250611f64565b806121de8461250a565b6040516020016121ef929190612c77565b6040516020818303038152906040529392505050565b60006001600160e01b03198216637965db0b60e01b148061077557506301ffc9a760e01b6001600160e01b0319831614610775565b60606000612249836002612ca6565b612254906002612ce7565b67ffffffffffffffff81111561226c5761226c612935565b6040519080825280601f01601f191660200182016040528015612296576020820181803683370190505b509050600360fc1b816000815181106122b1576122b1612b1e565b60200101906001600160f81b031916908160001a905350600f60fb1b816001815181106122e0576122e0612b1e565b60200101906001600160f81b031916908160001a9053506000612304846002612ca6565b61230f906001612ce7565b90505b6001811115612387576f181899199a1a9b1b9c1cb0b131b232b360811b85600f166010811061234357612343612b1e565b1a60f81b82828151811061235957612359612b1e565b60200101906001600160f81b031916908160001a90535060049490941c9361238081612ee2565b9050612312565b508315611f645760405162461bcd60e51b815260206004820181905260248201527f537472696e67733a20686578206c656e67746820696e73756666696369656e7460448201526064016109c0565b6123e0838361260b565b6123ed6000848484612409565b610af55760405162461bcd60e51b81526004016109c090612e90565b60006001600160a01b0384163b156124ff57604051630a85bd0160e11b81526001600160a01b0385169063150b7a029061244d903390899088908890600401612ef9565b6020604051808303816000875af1925050508015612488575060408051601f3d908101601f1916820190925261248591810190612f36565b60015b6124e5573d8080156124b6576040519150601f19603f3d011682016040523d82523d6000602084013e6124bb565b606091505b5080516000036124dd5760405162461bcd60e51b81526004016109c090612e90565b805181602001fd5b6001600160e01b031916630a85bd0160e11b149050611665565b506001949350505050565b6060816000036125315750506040805180820190915260018152600360fc1b602082015290565b8160005b811561255b578061254581612b4a565b91506125549050600a83612cd3565b9150612535565b60008167ffffffffffffffff81111561257657612576612935565b6040519080825280601f01601f1916602001820160405280156125a0576020820181803683370190505b5090505b8415611665576125b5600183612d6f565b91506125c2600a86612f53565b6125cd906030612ce7565b60f81b8183815181106125e2576125e2612b1e565b60200101906001600160f81b031916908160001a905350612604600a86612cd3565b94506125a4565b6001600160a01b0382166126615760405162461bcd60e51b815260206004820181905260248201527f4552433732313a206d696e7420746f20746865207a65726f206164647265737360448201526064016109c0565b61266a81611afa565b156126b75760405162461bcd60e51b815260206004820152601c60248201527f4552433732313a20746f6b656e20616c7265616479206d696e7465640000000060448201526064016109c0565b6001600160a01b03821660009081526004602052604081208054600192906126e0908490612ce7565b909155505060008181526003602052604080822080546001600160a01b0319166001600160a01b03861690811790915590518392907fddf252ad1be2c89b69c2b068fc378daa952ba7f163c4a11628f55a4df523b3ef908290a45050565b6001600160e01b03198116811461275457600080fd5b50565b60006020828403121561276957600080fd5b8135611f648161273e565b602080825282518282018190526000919060409081850190868401855b828110156127e357815180518552868101516001600160a01b03908116888701528682015116868601526060808201519086015260809081015115159085015260a09093019290850190600101612791565b5091979650505050505050565b60005b8381101561280b5781810151838201526020016127f3565b50506000910152565b6000815180845261282c8160208601602086016127f0565b601f01601f19169290920160200192915050565b602081526000611f646020830184612814565b60006020828403121561286557600080fd5b5035919050565b80356001600160a01b038116811461288357600080fd5b919050565b6000806040838503121561289b57600080fd5b6128a48361286c565b946020939093013593505050565b6000806000606084860312156128c757600080fd5b6128d08461286c565b92506128de6020850161286c565b9150604084013590509250925092565b60006020828403121561290057600080fd5b611f648261286c565b6000806040838503121561291c57600080fd5b8235915061292c6020840161286c565b90509250929050565b634e487b7160e01b600052604160045260246000fd5b600067ffffffffffffffff8084111561296657612966612935565b604051601f8501601f19908116603f0116810190828211818310171561298e5761298e612935565b816040528093508581528686860111156129a757600080fd5b858560208301376000602087830101525050509392505050565b600080604083850312156129d457600080fd5b823567ffffffffffffffff8111156129eb57600080fd5b8301601f810185136129fc57600080fd5b612a0b8582356020840161294b565b95602094909401359450505050565b60008060408385031215612a2d57600080fd5b612a368361286c565b915060208301358015158114612a4b57600080fd5b809150509250929050565b60008060008060808587031215612a6c57600080fd5b612a758561286c565b9350612a836020860161286c565b925060408501359150606085013567ffffffffffffffff811115612aa657600080fd5b8501601f81018713612ab757600080fd5b612ac68782356020840161294b565b91505092959194509250565b60008060408385031215612ae557600080fd5b612aee8361286c565b915061292c6020840161286c565b60008060408385031215612b0f57600080fd5b50508035926020909101359150565b634e487b7160e01b600052603260045260246000fd5b634e487b7160e01b600052601160045260246000fd5b600060018201612b5c57612b5c612b34565b5060010190565b600181811c90821680612b7757607f821691505b602082108103612b9757634e487b7160e01b600052602260045260246000fd5b50919050565b60208082526031908201527f4552433732313a207472616e736665722063616c6c6572206973206e6f74206f6040820152701ddb995c881b9bdc88185c1c1c9bdd9959607a1b606082015260800190565b60208082526022908201527f4e46544d61726b6574706c6163653a20496e73756666696369656e742066756e604082015261647360f01b606082015260800190565b60208082526027908201527f4e46544d61726b6574706c6163653a20546f6b656e20494420646f6573206e6f6040820152661d08195e1a5cdd60ca1b606082015260800190565b60008351612c898184602088016127f0565b835190830190612c9d8183602088016127f0565b01949350505050565b808202811582820484141761077557610775612b34565b634e487b7160e01b600052601260045260246000fd5b600082612ce257612ce2612cbd565b500490565b8082018082111561077557610775612b34565b7f416363657373436f6e74726f6c3a206163636f756e7420000000000000000000815260008351612d328160178501602088016127f0565b7001034b99036b4b9b9b4b733903937b6329607d1b6017918401918201528351612d638160288401602088016127f0565b01602801949350505050565b8181038181111561077557610775612b34565b601f821115610af557600081815260208120601f850160051c81016020861015612da95750805b601f850160051c820191505b81811015612dc857828155600101612db5565b505050505050565b815167ffffffffffffffff811115612dea57612dea612935565b612dfe81612df88454612b63565b84612d82565b602080601f831160018114612e335760008415612e1b5750858301515b600019600386901b1c1916600185901b178555612dc8565b600085815260208120601f198616915b82811015612e6257888601518255948401946001909101908401612e43565b5085821015612e805787850151600019600388901b60f8161c191681555b5050505050600190811b01905550565b60208082526032908201527f4552433732313a207472616e7366657220746f206e6f6e20455243373231526560408201527131b2b4bb32b91034b6b83632b6b2b73a32b960711b606082015260800190565b600081612ef157612ef1612b34565b506000190190565b6001600160a01b0385811682528416602082015260408101839052608060608201819052600090612f2c90830184612814565b9695505050505050565b600060208284031215612f4857600080fd5b8151611f648161273e565b600082612f6257612f62612cbd565b50069056fea2646970667358221220b0043a306cf833123d3f99e4c38baf05b671d18c96516a31f59e267c7e9769b264736f6c63430008140033",
  "linkReferences": {},
  "deployedLinkReferences": {}
}