{
  "_format": "hh-sol-artifact-1",
  "contractName": "NFTMarketplace",
  "sourceName": "contracts/NFTMarketplace.sol",
  "abi": [
    {
      "inputs": [],
      "stateMutability": "nonpayable",
      "type": "constructor"
    },
    {
      "anonymous": false,
      "inputs": [
        {
          "indexed": true,
          "internalType": "address",
          "name": "owner",
          "type": "address"
        },
        {
          "indexed": true,
          "internalType": "address",
          "name": "approved",
          "type": "address"
        },
        {
          "indexed": true,
          "internalType": "uint256",
          "name": "tokenId",
          "type": "uint256"
        }
      ],
      "name": "Approval",
      "type": "event"
    },
    {
      "anonymous": false,
      "inputs": [
        {
          "indexed": true,
          "internalType": "address",
          "name": "owner",
          "type": "address"
        },
        {
          "indexed": true,
          "internalType": "address",
          "name": "operator",
          "type": "address"
        },
        {
          "indexed": false,
          "internalType": "bool",
          "name": "approved",
          "type": "bool"
        }
      ],
      "name": "ApprovalForAll",
      "type": "event"
    },
    {
      "anonymous": false,
      "inputs": [
        {
          "indexed": true,
          "internalType": "uint256",
          "name": "tokenId",
          "type": "uint256"
        },
        {
          "indexed": false,
          "internalType": "uint256",
          "name": "price",
          "type": "uint256"
        }
      ],
      "name": "NFTPriceSet",
      "type": "event"
    },
    {
      "anonymous": false,
      "inputs": [
        {
          "indexed": true,
          "internalType": "uint256",
          "name": "tokenId",
          "type": "uint256"
        },
        {
          "indexed": true,
          "internalType": "address",
          "name": "buyer",
          "type": "address"
        },
        {
          "indexed": false,
          "internalType": "uint256",
          "name": "price",
          "type": "uint256"
        }
      ],
      "name": "NFTSold",
      "type": "event"
    },
    {
      "anonymous": false,
      "inputs": [
        {
          "indexed": true,
          "internalType": "bytes32",
          "name": "role",
          "type": "bytes32"
        },
        {
          "indexed": true,
          "internalType": "bytes32",
          "name": "previousAdminRole",
          "type": "bytes32"
        },
        {
          "indexed": true,
          "internalType": "bytes32",
          "name": "newAdminRole",
          "type": "bytes32"
        }
      ],
      "name": "RoleAdminChanged",
      "type": "event"
    },
    {
      "anonymous": false,
      "inputs": [
        {
          "indexed": true,
          "internalType": "bytes32",
          "name": "role",
          "type": "bytes32"
        },
        {
          "indexed": true,
          "internalType": "address",
          "name": "account",
          "type": "address"
        },
        {
          "indexed": true,
          "internalType": "address",
          "name": "sender",
          "type": "address"
        }
      ],
      "name": "RoleGranted",
      "type": "event"
    },
    {
      "anonymous": false,
      "inputs": [
        {
          "indexed": true,
          "internalType": "bytes32",
          "name": "role",
          "type": "bytes32"
        },
        {
          "indexed": true,
          "internalType": "address",
          "name": "account",
          "type": "address"
        },
        {
          "indexed": true,
          "internalType": "address",
          "name": "sender",
          "type": "address"
        }
      ],
      "name": "RoleRevoked",
      "type": "event"
    },
    {
      "anonymous": false,
      "inputs": [
        {
          "indexed": true,
          "internalType": "uint256",
          "name": "id",
          "type": "uint256"
        },
        {
          "indexed": true,
          "internalType": "address",
          "name": "owner",
          "type": "address"
        },
        {
          "indexed": true,
          "internalType": "address",
          "name": "creator",
          "type": "address"
        },
        {
          "indexed": false,
          "internalType": "uint256",
          "name": "price",
          "type": "uint256"
        },
        {
          "indexed": false,
          "internalType": "bool",
          "name": "isListed",
          "type": "bool"
        }
      ],
      "name": "TokenListedSuccess",
      "type": "event"
    },
    {
      "anonymous": false,
      "inputs": [
        {
          "indexed": true,
          "internalType": "address",
          "name": "from",
          "type": "address"
        },
        {
          "indexed": true,
          "internalType": "address",
          "name": "to",
          "type": "address"
        },
        {
          "indexed": true,
          "internalType": "uint256",
          "name": "tokenId",
          "type": "uint256"
        }
      ],
      "name": "Transfer",
      "type": "event"
    },
    {
      "inputs": [],
      "name": "ADMIN_ROLE",
      "outputs": [
        {
          "internalType": "bytes32",
          "name": "",
          "type": "bytes32"
        }
      ],
      "stateMutability": "view",
      "type": "function"
    },
    {
      "inputs": [],
      "name": "BUYER_ROLE",
      "outputs": [
        {
          "internalType": "bytes32",
          "name": "",
          "type": "bytes32"
        }
      ],
      "stateMutability": "view",
      "type": "function"
    },
    {
      "inputs": [],
      "name": "CONTRACT_FEE_PERCENT",
      "outputs": [
        {
          "internalType": "uint256",
          "name": "",
          "type": "uint256"
        }
      ],
      "stateMutability": "view",
      "type": "function"
    },
    {
      "inputs": [],
      "name": "CREATOR_ROLE",
      "outputs": [
        {
          "internalType": "bytes32",
          "name": "",
          "type": "bytes32"
        }
      ],
      "stateMutability": "view",
      "type": "function"
    },
    {
      "inputs": [],
      "name": "DEFAULT_ADMIN_ROLE",
      "outputs": [
        {
          "internalType": "bytes32",
          "name": "",
          "type": "bytes32"
        }
      ],
      "stateMutability": "view",
      "type": "function"
    },
    {
      "inputs": [],
      "name": "SELLER_ROLE",
      "outputs": [
        {
          "internalType": "bytes32",
          "name": "",
          "type": "bytes32"
        }
      ],
      "stateMutability": "view",
      "type": "function"
    },
    {
      "inputs": [
        {
          "internalType": "address",
          "name": "to",
          "type": "address"
        },
        {
          "internalType": "uint256",
          "name": "tokenId",
          "type": "uint256"
        }
      ],
      "name": "approve",
      "outputs": [],
      "stateMutability": "nonpayable",
      "type": "function"
    },
    {
      "inputs": [
        {
          "internalType": "address",
          "name": "_address",
          "type": "address"
        },
        {
          "internalType": "bytes32",
          "name": "_role",
          "type": "bytes32"
        }
      ],
      "name": "assignRole",
      "outputs": [],
      "stateMutability": "nonpayable",
      "type": "function"
    },
    {
      "inputs": [
        {
          "internalType": "address",
          "name": "owner",
          "type": "address"
        }
      ],
      "name": "balanceOf",
      "outputs": [
        {
          "internalType": "uint256",
          "name": "",
          "type": "uint256"
        }
      ],
      "stateMutability": "view",
      "type": "function"
    },
    {
      "inputs": [
        {
          "internalType": "address",
          "name": "",
          "type": "address"
        }
      ],
      "name": "balances",
      "outputs": [
        {
          "internalType": "uint256",
          "name": "",
          "type": "uint256"
        }
      ],
      "stateMutability": "view",
      "type": "function"
    },
    {
      "inputs": [
        {
          "internalType": "uint256",
          "name": "_tokenId",
          "type": "uint256"
        }
      ],
      "name": "buyNFT",
      "outputs": [],
      "stateMutability": "payable",
      "type": "function"
    },
    {
      "inputs": [
        {
          "internalType": "string",
          "name": "tokenURI",
          "type": "string"
        },
        {
          "internalType": "uint256",
          "name": "price",
          "type": "uint256"
        }
      ],
      "name": "createAndListToken",
      "outputs": [
        {
          "internalType": "uint256",
          "name": "",
          "type": "uint256"
        }
      ],
      "stateMutability": "payable",
      "type": "function"
    },
    {
      "inputs": [],
      "name": "getAllNfts",
      "outputs": [
        {
          "components": [
            {
              "internalType": "uint256",
              "name": "tokenId",
              "type": "uint256"
            },
            {
              "internalType": "address payable",
              "name": "owner",
              "type": "address"
            },
            {
              "internalType": "address payable",
              "name": "creator",
              "type": "address"
            },
            {
              "internalType": "uint256",
              "name": "price",
              "type": "uint256"
            },
            {
              "internalType": "bool",
              "name": "isListed",
              "type": "bool"
            }
          ],
          "internalType": "struct NFTMarketplace.ListedToken[]",
          "name": "",
          "type": "tuple[]"
        }
      ],
      "stateMutability": "view",
      "type": "function"
    },
    {
      "inputs": [
        {
          "internalType": "uint256",
          "name": "tokenId",
          "type": "uint256"
        }
      ],
      "name": "getApproved",
      "outputs": [
        {
          "internalType": "address",
          "name": "",
          "type": "address"
        }
      ],
      "stateMutability": "view",
      "type": "function"
    },
    {
      "inputs": [],
      "name": "getMyNfts",
      "outputs": [
        {
          "components": [
            {
              "internalType": "uint256",
              "name": "tokenId",
              "type": "uint256"
            },
            {
              "internalType": "address payable",
              "name": "owner",
              "type": "address"
            },
            {
              "internalType": "address payable",
              "name": "creator",
              "type": "address"
            },
            {
              "internalType": "uint256",
              "name": "price",
              "type": "uint256"
            },
            {
              "internalType": "bool",
              "name": "isListed",
              "type": "bool"
            }
          ],
          "internalType": "struct NFTMarketplace.ListedToken[]",
          "name": "",
          "type": "tuple[]"
        }
      ],
      "stateMutability": "view",
      "type": "function"
    },
    {
      "inputs": [
        {
          "internalType": "bytes32",
          "name": "role",
          "type": "bytes32"
        }
      ],
      "name": "getRoleAdmin",
      "outputs": [
        {
          "internalType": "bytes32",
          "name": "",
          "type": "bytes32"
        }
      ],
      "stateMutability": "view",
      "type": "function"
    },
    {
      "inputs": [],
      "name": "getTokenIdCounter",
      "outputs": [
        {
          "internalType": "uint256",
          "name": "",
          "type": "uint256"
        }
      ],
      "stateMutability": "view",
      "type": "function"
    },
    {
      "inputs": [
        {
          "internalType": "uint256",
          "name": "_tokenId",
          "type": "uint256"
        }
      ],
      "name": "getTokenURI",
      "outputs": [
        {
          "internalType": "string",
          "name": "",
          "type": "string"
        }
      ],
      "stateMutability": "view",
      "type": "function"
    },
    {
      "inputs": [
        {
          "internalType": "bytes32",
          "name": "role",
          "type": "bytes32"
        },
        {
          "internalType": "address",
          "name": "account",
          "type": "address"
        }
      ],
      "name": "grantRole",
      "outputs": [],
      "stateMutability": "nonpayable",
      "type": "function"
    },
    {
      "inputs": [
        {
          "internalType": "bytes32",
          "name": "role",
          "type": "bytes32"
        },
        {
          "internalType": "address",
          "name": "account",
          "type": "address"
        }
      ],
      "name": "hasRole",
      "outputs": [
        {
          "internalType": "bool",
          "name": "",
          "type": "bool"
        }
      ],
      "stateMutability": "view",
      "type": "function"
    },
    {
      "inputs": [
        {
          "internalType": "address",
          "name": "owner",
          "type": "address"
        },
        {
          "internalType": "address",
          "name": "operator",
          "type": "address"
        }
      ],
      "name": "isApprovedForAll",
      "outputs": [
        {
          "internalType": "bool",
          "name": "",
          "type": "bool"
        }
      ],
      "stateMutability": "view",
      "type": "function"
    },
    {
      "inputs": [],
      "name": "name",
      "outputs": [
        {
          "internalType": "string",
          "name": "",
          "type": "string"
        }
      ],
      "stateMutability": "view",
      "type": "function"
    },
    {
      "inputs": [
        {
          "internalType": "uint256",
          "name": "",
          "type": "uint256"
        }
      ],
      "name": "nftPrices",
      "outputs": [
        {
          "internalType": "uint256",
          "name": "",
          "type": "uint256"
        }
      ],
      "stateMutability": "view",
      "type": "function"
    },
    {
      "inputs": [],
      "name": "owner",
      "outputs": [
        {
          "internalType": "address payable",
          "name": "",
          "type": "address"
        }
      ],
      "stateMutability": "view",
      "type": "function"
    },
    {
      "inputs": [
        {
          "internalType": "uint256",
          "name": "tokenId",
          "type": "uint256"
        }
      ],
      "name": "ownerOf",
      "outputs": [
        {
          "internalType": "address",
          "name": "",
          "type": "address"
        }
      ],
      "stateMutability": "view",
      "type": "function"
    },
    {
      "inputs": [
        {
          "internalType": "bytes32",
          "name": "role",
          "type": "bytes32"
        },
        {
          "internalType": "address",
          "name": "account",
          "type": "address"
        }
      ],
      "name": "renounceRole",
      "outputs": [],
      "stateMutability": "nonpayable",
      "type": "function"
    },
    {
      "inputs": [
        {
          "internalType": "address",
          "name": "_address",
          "type": "address"
        },
        {
          "internalType": "bytes32",
          "name": "_role",
          "type": "bytes32"
        }
      ],
      "name": "revokeRole",
      "outputs": [],
      "stateMutability": "nonpayable",
      "type": "function"
    },
    {
      "inputs": [
        {
          "internalType": "bytes32",
          "name": "role",
          "type": "bytes32"
        },
        {
          "internalType": "address",
          "name": "account",
          "type": "address"
        }
      ],
      "name": "revokeRole",
      "outputs": [],
      "stateMutability": "nonpayable",
      "type": "function"
    },
    {
      "inputs": [
        {
          "internalType": "address",
          "name": "from",
          "type": "address"
        },
        {
          "internalType": "address",
          "name": "to",
          "type": "address"
        },
        {
          "internalType": "uint256",
          "name": "tokenId",
          "type": "uint256"
        }
      ],
      "name": "safeTransferFrom",
      "outputs": [],
      "stateMutability": "nonpayable",
      "type": "function"
    },
    {
      "inputs": [
        {
          "internalType": "address",
          "name": "from",
          "type": "address"
        },
        {
          "internalType": "address",
          "name": "to",
          "type": "address"
        },
        {
          "internalType": "uint256",
          "name": "tokenId",
          "type": "uint256"
        },
        {
          "internalType": "bytes",
          "name": "_data",
          "type": "bytes"
        }
      ],
      "name": "safeTransferFrom",
      "outputs": [],
      "stateMutability": "nonpayable",
      "type": "function"
    },
    {
      "inputs": [
        {
          "internalType": "uint256",
          "name": "_tokenId",
          "type": "uint256"
        }
      ],
      "name": "sellNfts",
      "outputs": [],
      "stateMutability": "payable",
      "type": "function"
    },
    {
      "inputs": [
        {
          "internalType": "address",
          "name": "operator",
          "type": "address"
        },
        {
          "internalType": "bool",
          "name": "approved",
          "type": "bool"
        }
      ],
      "name": "setApprovalForAll",
      "outputs": [],
      "stateMutability": "nonpayable",
      "type": "function"
    },
    {
      "inputs": [
        {
          "internalType": "uint256",
          "name": "_tokenId",
          "type": "uint256"
        },
        {
          "internalType": "uint256",
          "name": "_price",
          "type": "uint256"
        }
      ],
      "name": "setPrice",
      "outputs": [],
      "stateMutability": "nonpayable",
      "type": "function"
    },
    {
      "inputs": [
        {
          "internalType": "bytes4",
          "name": "interfaceId",
          "type": "bytes4"
        }
      ],
      "name": "supportsInterface",
      "outputs": [
        {
          "internalType": "bool",
          "name": "",
          "type": "bool"
        }
      ],
      "stateMutability": "view",
      "type": "function"
    },
    {
      "inputs": [],
      "name": "symbol",
      "outputs": [
        {
          "internalType": "string",
          "name": "",
          "type": "string"
        }
      ],
      "stateMutability": "view",
      "type": "function"
    },
    {
      "inputs": [
        {
          "internalType": "uint256",
          "name": "tokenId",
          "type": "uint256"
        }
      ],
      "name": "tokenURI",
      "outputs": [
        {
          "internalType": "string",
          "name": "",
          "type": "string"
        }
      ],
      "stateMutability": "view",
      "type": "function"
    },
    {
      "inputs": [
        {
          "internalType": "address",
          "name": "from",
          "type": "address"
        },
        {
          "internalType": "address",
          "name": "to",
          "type": "address"
        },
        {
          "internalType": "uint256",
          "name": "tokenId",
          "type": "uint256"
        }
      ],
      "name": "transferFrom",
      "outputs": [],
      "stateMutability": "nonpayable",
      "type": "function"
    },
    {
      "inputs": [],
      "name": "withdraw",
      "outputs": [],
      "stateMutability": "nonpayable",
      "type": "function"
    }
  ],
  "bytecode": "0x608060405266038d7ea4c68000600b553480156200001c57600080fd5b506040518060400160405280600e81526020016d4e46544d61726b6574706c61636560901b815250604051806040016040528060048152602001634e46544d60e01b81525081600190816200007291906200020a565b5060026200008182826200020a565b5050600160085550600a80546001600160a01b03191633179055620000af6000620000a93390565b620000b5565b620002d6565b620000c18282620000c5565b5050565b6000828152602081815260408083206001600160a01b038516845290915290205460ff16620000c1576000828152602081815260408083206001600160a01b03851684529091529020805460ff19166001179055620001213390565b6001600160a01b0316816001600160a01b0316837f2f8788117e7eff1d82e926ec794901d17c78024a50270940304540a733656f0d60405160405180910390a45050565b634e487b7160e01b600052604160045260246000fd5b600181811c908216806200019057607f821691505b602082108103620001b157634e487b7160e01b600052602260045260246000fd5b50919050565b601f8211156200020557600081815260208120601f850160051c81016020861015620001e05750805b601f850160051c820191505b818110156200020157828155600101620001ec565b5050505b505050565b81516001600160401b0381111562000226576200022662000165565b6200023e816200023784546200017b565b84620001b7565b602080601f8311600181146200027657600084156200025d5750858301515b600019600386901b1c1916600185901b17855562000201565b600085815260208120601f198616915b82811015620002a75788860151825594840194600190910190840162000286565b5085821015620002c65787850151600019600388901b60f8161c191681555b5050505050600190811b01905550565b612e7880620002e66000396000f3fe6080604052600436106102255760003560e01c8063732e8d7311610123578063a22cb465116100ab578063dac178381161006f578063dac1783814610643578063dbe4613d14610656578063dbfd4b981461066b578063e985e9c514610680578063f7d97577146106c957600080fd5b8063a22cb46514610596578063b88d4fde146105b6578063c87b56dd146105d6578063d547741f146105f6578063d9f10a2b1461061657600080fd5b80638da5cb5b116100f25780638da5cb5b1461051757806390587ef51461053757806391d148541461054c57806395d89b411461056c578063a217fddf1461058157600080fd5b8063732e8d73146104c357806375b238fc146104d85780637a01a1da146104ed5780638aeda25a1461050257600080fd5b806327e235e3116101b157806342842e0e1161017557806342842e0e1461043d57806351ed82881461045d5780635f0bc118146104705780636352211e1461048357806370a08231146104a357600080fd5b806327e235e31461039b5780632f2ff15d146103c857806336568abe146103e85780633bb3a24d146104085780633ccfd60b1461042857600080fd5b8063095ea7b3116101f8578063095ea7b3146102db5780631d9486de146102fd578063208dd1ff1461031d57806323b872dd1461033d578063248a9ca31461035d57600080fd5b806301ffc9a71461022a578063047b07bf1461025f57806306fdde0314610281578063081812fc146102a3575b600080fd5b34801561023657600080fd5b5061024a610245366004612632565b6106e9565b60405190151581526020015b60405180910390f35b34801561026b57600080fd5b506102746106fa565b604051610256919061264f565b34801561028d57600080fd5b50610296610845565b604051610256919061271b565b3480156102af57600080fd5b506102c36102be36600461272e565b6108d7565b6040516001600160a01b039091168152602001610256565b3480156102e757600080fd5b506102fb6102f6366004612763565b610964565b005b34801561030957600080fd5b506102fb610318366004612763565b610a79565b34801561032957600080fd5b506102fb610338366004612763565b610ac2565b34801561034957600080fd5b506102fb61035836600461278d565b610b06565b34801561036957600080fd5b5061038d61037836600461272e565b60009081526020819052604090206001015490565b604051908152602001610256565b3480156103a757600080fd5b5061038d6103b63660046127c9565b600d6020526000908152604090205481565b3480156103d457600080fd5b506102fb6103e33660046127e4565b610b37565b3480156103f457600080fd5b506102fb6104033660046127e4565b610b5d565b34801561041457600080fd5b5061029661042336600461272e565b610bdb565b34801561043457600080fd5b506102fb610be6565b34801561044957600080fd5b506102fb61045836600461278d565b610d5c565b6102fb61046b36600461272e565b610d77565b61038d61047e36600461289c565b610f83565b34801561048f57600080fd5b506102c361049e36600461272e565b611138565b3480156104af57600080fd5b5061038d6104be3660046127c9565b6111af565b3480156104cf57600080fd5b50610274611236565b3480156104e457600080fd5b5061038d611357565b3480156104f957600080fd5b5061038d61138a565b34801561050e57600080fd5b5061038d6113a8565b34801561052357600080fd5b50600a546102c3906001600160a01b031681565b34801561054357600080fd5b5061038d600581565b34801561055857600080fd5b5061024a6105673660046127e4565b6113c8565b34801561057857600080fd5b506102966113f1565b34801561058d57600080fd5b5061038d600081565b3480156105a257600080fd5b506102fb6105b13660046128f5565b611400565b3480156105c257600080fd5b506102fb6105d1366004612931565b61140b565b3480156105e257600080fd5b506102966105f136600461272e565b611443565b34801561060257600080fd5b506102fb6106113660046127e4565b6115b9565b34801561062257600080fd5b5061038d61063136600461272e565b600c6020526000908152604090205481565b6102fb61065136600461272e565b6115df565b34801561066257600080fd5b5061038d6118ad565b34801561067757600080fd5b5061038d6118cc565b34801561068c57600080fd5b5061024a61069b3660046129ad565b6001600160a01b03918216600090815260066020908152604080832093909416825291909152205460ff1690565b3480156106d557600080fd5b506102fb6106e43660046129d7565b6118dc565b60006106f48261199d565b92915050565b6060600061070760095490565b905060008167ffffffffffffffff81111561072457610724612810565b60405190808252806020026020018201604052801561077d57816020015b6040805160a0810182526000808252602080830182905292820181905260608201819052608082015282526000199092019101816107425790505b50905060005b8281101561083e576000818152600e6020526040902060010154336001600160a01b039091160361082c576000818152600e6020908152604091829020825160a0810184528154815260018201546001600160a01b03908116938201939093526002820154909216928201929092526003820154606082015260049091015460ff16151560808201528251839083908110610820576108206129f9565b60200260200101819052505b8061083681612a25565b915050610783565b5092915050565b60606001805461085490612a3e565b80601f016020809104026020016040519081016040528092919081815260200182805461088090612a3e565b80156108cd5780601f106108a2576101008083540402835291602001916108cd565b820191906000526020600020905b8154815290600101906020018083116108b057829003601f168201915b5050505050905090565b60006108e2826119dd565b6109485760405162461bcd60e51b815260206004820152602c60248201527f4552433732313a20617070726f76656420717565727920666f72206e6f6e657860448201526b34b9ba32b73a103a37b5b2b760a11b60648201526084015b60405180910390fd5b506000908152600560205260409020546001600160a01b031690565b600061096f82611138565b9050806001600160a01b0316836001600160a01b0316036109dc5760405162461bcd60e51b815260206004820152602160248201527f4552433732313a20617070726f76616c20746f2063757272656e74206f776e656044820152603960f91b606482015260840161093f565b336001600160a01b03821614806109f857506109f8813361069b565b610a6a5760405162461bcd60e51b815260206004820152603860248201527f4552433732313a20617070726f76652063616c6c6572206973206e6f74206f7760448201527f6e6572206e6f7220617070726f76656420666f7220616c6c0000000000000000606482015260840161093f565b610a7483836119fa565b505050565b6040516941444d494e5f524f4c4560b01b6020820152602a0160405160208183030381529060405280519060200120610ab881610ab33390565b611a68565b610a748284610b37565b6040516941444d494e5f524f4c4560b01b6020820152602a0160405160208183030381529060405280519060200120610afc81610ab33390565b610a7482846115b9565b610b103382611acc565b610b2c5760405162461bcd60e51b815260040161093f90612a78565b610a74838383611bb2565b600082815260208190526040902060010154610b538133611a68565b610a748383611d52565b6001600160a01b0381163314610bcd5760405162461bcd60e51b815260206004820152602f60248201527f416363657373436f6e74726f6c3a2063616e206f6e6c792072656e6f756e636560448201526e103937b632b9903337b91039b2b63360891b606482015260840161093f565b610bd78282611dd6565b5050565b60606106f482611443565b600260085403610c385760405162461bcd60e51b815260206004820152601f60248201527f5265656e7472616e637947756172643a207265656e7472616e742063616c6c00604482015260640161093f565b6002600855336000908152600d6020526040902054610ca85760405162461bcd60e51b815260206004820152602660248201527f4e46544d61726b6574706c6163653a204e6f2062616c616e636520746f20776960448201526574686472617760d01b606482015260840161093f565b336000818152600d6020526040808220805490839055905190929083908381818185875af1925050503d8060008114610cfd576040519150601f19603f3d011682016040523d82523d6000602084013e610d02565b606091505b5050905080610d535760405162461bcd60e51b815260206004820152601f60248201527f4e46544d61726b6574706c6163653a205472616e73666572206661696c656400604482015260640161093f565b50506001600855565b610a748383836040518060200160405280600081525061140b565b6040516942555945525f524f4c4560b01b6020820152602a0160405160208183030381529060405280519060200120610db181610ab33390565b600260085403610e035760405162461bcd60e51b815260206004820152601f60248201527f5265656e7472616e637947756172643a207265656e7472616e742063616c6c00604482015260640161093f565b60026008556000828152600c6020526040902054610e635760405162461bcd60e51b815260206004820181905260248201527f4e46544d61726b6574706c6163653a204e4654206e6f7420666f722073616c65604482015260640161093f565b6000828152600c6020526040902054341015610e915760405162461bcd60e51b815260040161093f90612ac9565b6000610e9c83611138565b6000848152600c6020526040812054919250610ec46064610ebe846005611e3b565b90611e4e565b90506000610ed28383611e5a565b6001600160a01b0385166000908152600d6020526040902054909150610ef89082611e66565b6001600160a01b0385166000908152600d6020526040808220929092553081522054610f249083611e66565b306000908152600d6020526040902055610f3f843388611bb2565b604051838152339087907f6329e40c0365262ebbff5ca819385c2b9713dcaa050ed07866d72c441395699a9060200160405180910390a35050600160085550505050565b6040516b43524541544f525f524f4c4560a01b6020820152600090602c0160405160208183030381529060405280519060200120610fc281610ab33390565b610fd0600980546001019055565b6000610fdb60095490565b9050610fe73382611e72565b610ff18186611e8c565b6000610ffc82611138565b90506001600160a01b0381166110245760405162461bcd60e51b815260040161093f90612b0b565b6000828152600c6020908152604091829020879055815160a081018352848152339181019190915290810161105884611138565b6001600160a01b0390811682526020808301899052600160409384018190526000878152600e8352849020855181559185015190820180549184166001600160a01b0319928316179055928401516002820180549190931693168317909155606083015160038201556080909201516004909201805492151560ff19909316929092179091556110e783611138565b60408051888152600160208201526001600160a01b03929092169185917f9339409317fd01fabff48b703019016f49159bacc801ae872d2ca637d226e4c0910160405180910390a450949350505050565b6000818152600360205260408120546001600160a01b0316806106f45760405162461bcd60e51b815260206004820152602960248201527f4552433732313a206f776e657220717565727920666f72206e6f6e657869737460448201526832b73a103a37b5b2b760b91b606482015260840161093f565b60006001600160a01b03821661121a5760405162461bcd60e51b815260206004820152602a60248201527f4552433732313a2062616c616e636520717565727920666f7220746865207a65604482015269726f206164647265737360b01b606482015260840161093f565b506001600160a01b031660009081526004602052604090205490565b6060600061124360095490565b905060008167ffffffffffffffff81111561126057611260612810565b6040519080825280602002602001820160405280156112b957816020015b6040805160a08101825260008082526020808301829052928201819052606082018190526080820152825260001990920191018161127e5790505b50905060005b8281101561083e576000818152600e6020908152604091829020825160a0810184528154815260018201546001600160a01b03908116938201939093526002820154909216928201929092526003820154606082015260049091015460ff16151560808201528251839083908110611339576113396129f9565b6020026020010181905250808061134f90612a25565b9150506112bf565b6040516941444d494e5f524f4c4560b01b6020820152602a015b6040516020818303038152906040528051906020012081565b6040516942555945525f524f4c4560b01b6020820152602a01611371565b6040516b43524541544f525f524f4c4560a01b6020820152602c01611371565b6000918252602082815260408084206001600160a01b0393909316845291905290205460ff1690565b60606002805461085490612a3e565b610bd7338383611f10565b6114153383611acc565b6114315760405162461bcd60e51b815260040161093f90612a78565b61143d84848484611fd6565b50505050565b606061144e826119dd565b6114b45760405162461bcd60e51b815260206004820152603160248201527f45524337323155524953746f726167653a2055524920717565727920666f72206044820152703737b732bc34b9ba32b73a103a37b5b2b760791b606482015260840161093f565b600082815260076020526040812080546114cd90612a3e565b80601f01602080910402602001604051908101604052809291908181526020018280546114f990612a3e565b80156115465780601f1061151b57610100808354040283529160200191611546565b820191906000526020600020905b81548152906001019060200180831161152957829003601f168201915b50505050509050600061156460408051602081019091526000815290565b90508051600003611576575092915050565b8151156115a8578082604051602001611590929190612b52565b60405160208183030381529060405292505050919050565b6115b184612009565b949350505050565b6000828152602081905260409020600101546115d58133611a68565b610a748383611dd6565b6000818152600e602052604090206004015460ff166116405760405162461bcd60e51b815260206004820152601e60248201527f4e46544d61726b6574706c6163653a204e4654206e6f74206c69737465640000604482015260640161093f565b6040516a53454c4c45525f524f4c4560a81b602082015261167a90602b0160405160208183030381529060405280519060200120336113c8565b6116d55760405162461bcd60e51b815260206004820152602660248201527f4e46544d61726b6574706c6163653a2043616c6c6572206973206e6f7420612060448201526539b2b63632b960d11b606482015260840161093f565b6000818152600e60205260409020600301543410156117065760405162461bcd60e51b815260040161093f90612ac9565b6000818152600e60205260409020600181018054600390920154336001600160a01b0319841681179092556001600160a01b03909216919061174a90309085611bb2565b61175433846119fa565b606461176134605f612b81565b61176b9190612bae565b6001600160a01b0383166000908152600d602052604081208054909190611793908490612bc2565b90915550606490506117a6346005612b81565b6117b09190612bae565b306000908152600d6020526040812080549091906117cf908490612bc2565b90915550506001600160a01b0382166108fc60646117ee34605f612b81565b6117f89190612bae565b6040518115909202916000818181858888f19350505050158015611820573d6000803e3d6000fd5b50600a546001600160a01b03166108fc606461183d346005612b81565b6118479190612bae565b6040518115909202916000818181858888f1935050505015801561186f573d6000803e3d6000fd5b50604051818152339084907f6329e40c0365262ebbff5ca819385c2b9713dcaa050ed07866d72c441395699a906020015b60405180910390a3505050565b6040516a53454c4c45525f524f4c4560a81b6020820152602b01611371565b60006118d760095490565b905090565b6040516a53454c4c45525f524f4c4560a81b6020820152602b016040516020818303038152906040528051906020012061191781610ab33390565b600061192284611138565b90506001600160a01b03811661194a5760405162461bcd60e51b815260040161093f90612b0b565b6000848152600c6020526040908190208490555184907f61cbb787cac798aa7b3f71801e31103a59e4f6e2cf21cb9c3696d5bc076060ab9061198f9086815260200190565b60405180910390a250505050565b60006001600160e01b031982166380ac58cd60e01b14806119ce57506001600160e01b03198216635b5e139f60e01b145b806106f457506106f4826120e0565b6000908152600360205260409020546001600160a01b0316151590565b600081815260056020526040902080546001600160a01b0319166001600160a01b0384169081179091558190611a2f82611138565b6001600160a01b03167f8c5be1e5ebec7d5bd14f71427d1e84f3dd0314c0f7b2291e5b200ac8c7c3b92560405160405180910390a45050565b611a7282826113c8565b610bd757611a8a816001600160a01b03166014612115565b611a95836020612115565b604051602001611aa6929190612bd5565b60408051601f198184030181529082905262461bcd60e51b825261093f9160040161271b565b6000611ad7826119dd565b611b385760405162461bcd60e51b815260206004820152602c60248201527f4552433732313a206f70657261746f7220717565727920666f72206e6f6e657860448201526b34b9ba32b73a103a37b5b2b760a11b606482015260840161093f565b6000611b4383611138565b9050806001600160a01b0316846001600160a01b03161480611b7e5750836001600160a01b0316611b73846108d7565b6001600160a01b0316145b806115b157506001600160a01b0380821660009081526006602090815260408083209388168352929052205460ff166115b1565b826001600160a01b0316611bc582611138565b6001600160a01b031614611c2d5760405162461bcd60e51b815260206004820152602960248201527f4552433732313a207472616e73666572206f6620746f6b656e2074686174206960448201526839903737ba1037bbb760b91b606482015260840161093f565b6001600160a01b038216611c8f5760405162461bcd60e51b8152602060048201526024808201527f4552433732313a207472616e7366657220746f20746865207a65726f206164646044820152637265737360e01b606482015260840161093f565b611c9a6000826119fa565b6001600160a01b0383166000908152600460205260408120805460019290611cc3908490612c4a565b90915550506001600160a01b0382166000908152600460205260408120805460019290611cf1908490612bc2565b909155505060008181526003602052604080822080546001600160a01b0319166001600160a01b0386811691821790925591518493918716917fddf252ad1be2c89b69c2b068fc378daa952ba7f163c4a11628f55a4df523b3ef91a4505050565b611d5c82826113c8565b610bd7576000828152602081815260408083206001600160a01b03851684529091529020805460ff19166001179055611d923390565b6001600160a01b0316816001600160a01b0316837f2f8788117e7eff1d82e926ec794901d17c78024a50270940304540a733656f0d60405160405180910390a45050565b611de082826113c8565b15610bd7576000828152602081815260408083206001600160a01b0385168085529252808320805460ff1916905551339285917ff6391f5c32d9c69d2a47ea670b442974b53935d1edc7fd64eb21e047a839171b9190a45050565b6000611e478284612b81565b9392505050565b6000611e478284612bae565b6000611e478284612c4a565b6000611e478284612bc2565b610bd78282604051806020016040528060008152506122b1565b611e95826119dd565b611ef85760405162461bcd60e51b815260206004820152602e60248201527f45524337323155524953746f726167653a2055524920736574206f66206e6f6e60448201526d32bc34b9ba32b73a103a37b5b2b760911b606482015260840161093f565b6000828152600760205260409020610a748282612cab565b816001600160a01b0316836001600160a01b031603611f715760405162461bcd60e51b815260206004820152601960248201527f4552433732313a20617070726f766520746f2063616c6c657200000000000000604482015260640161093f565b6001600160a01b03838116600081815260066020908152604080832094871680845294825291829020805460ff191686151590811790915591519182527f17307eab39ab6107e8899845ad3d59bd9653f200f220920489ca2b5937696c3191016118a0565b611fe1848484611bb2565b611fed848484846122e4565b61143d5760405162461bcd60e51b815260040161093f90612d6b565b6060612014826119dd565b6120785760405162461bcd60e51b815260206004820152602f60248201527f4552433732314d657461646174613a2055524920717565727920666f72206e6f60448201526e3732bc34b9ba32b73a103a37b5b2b760891b606482015260840161093f565b600061208f60408051602081019091526000815290565b905060008151116120af5760405180602001604052806000815250611e47565b806120b9846123e5565b6040516020016120ca929190612b52565b6040516020818303038152906040529392505050565b60006001600160e01b03198216637965db0b60e01b14806106f457506301ffc9a760e01b6001600160e01b03198316146106f4565b60606000612124836002612b81565b61212f906002612bc2565b67ffffffffffffffff81111561214757612147612810565b6040519080825280601f01601f191660200182016040528015612171576020820181803683370190505b509050600360fc1b8160008151811061218c5761218c6129f9565b60200101906001600160f81b031916908160001a905350600f60fb1b816001815181106121bb576121bb6129f9565b60200101906001600160f81b031916908160001a90535060006121df846002612b81565b6121ea906001612bc2565b90505b6001811115612262576f181899199a1a9b1b9c1cb0b131b232b360811b85600f166010811061221e5761221e6129f9565b1a60f81b828281518110612234576122346129f9565b60200101906001600160f81b031916908160001a90535060049490941c9361225b81612dbd565b90506121ed565b508315611e475760405162461bcd60e51b815260206004820181905260248201527f537472696e67733a20686578206c656e67746820696e73756666696369656e74604482015260640161093f565b6122bb83836124e6565b6122c860008484846122e4565b610a745760405162461bcd60e51b815260040161093f90612d6b565b60006001600160a01b0384163b156123da57604051630a85bd0160e11b81526001600160a01b0385169063150b7a0290612328903390899088908890600401612dd4565b6020604051808303816000875af1925050508015612363575060408051601f3d908101601f1916820190925261236091810190612e11565b60015b6123c0573d808015612391576040519150601f19603f3d011682016040523d82523d6000602084013e612396565b606091505b5080516000036123b85760405162461bcd60e51b815260040161093f90612d6b565b805181602001fd5b6001600160e01b031916630a85bd0160e11b1490506115b1565b506001949350505050565b60608160000361240c5750506040805180820190915260018152600360fc1b602082015290565b8160005b8115612436578061242081612a25565b915061242f9050600a83612bae565b9150612410565b60008167ffffffffffffffff81111561245157612451612810565b6040519080825280601f01601f19166020018201604052801561247b576020820181803683370190505b5090505b84156115b157612490600183612c4a565b915061249d600a86612e2e565b6124a8906030612bc2565b60f81b8183815181106124bd576124bd6129f9565b60200101906001600160f81b031916908160001a9053506124df600a86612bae565b945061247f565b6001600160a01b03821661253c5760405162461bcd60e51b815260206004820181905260248201527f4552433732313a206d696e7420746f20746865207a65726f2061646472657373604482015260640161093f565b612545816119dd565b156125925760405162461bcd60e51b815260206004820152601c60248201527f4552433732313a20746f6b656e20616c7265616479206d696e74656400000000604482015260640161093f565b6001600160a01b03821660009081526004602052604081208054600192906125bb908490612bc2565b909155505060008181526003602052604080822080546001600160a01b0319166001600160a01b03861690811790915590518392907fddf252ad1be2c89b69c2b068fc378daa952ba7f163c4a11628f55a4df523b3ef908290a45050565b6001600160e01b03198116811461262f57600080fd5b50565b60006020828403121561264457600080fd5b8135611e4781612619565b602080825282518282018190526000919060409081850190868401855b828110156126be57815180518552868101516001600160a01b03908116888701528682015116868601526060808201519086015260809081015115159085015260a0909301929085019060010161266c565b5091979650505050505050565b60005b838110156126e65781810151838201526020016126ce565b50506000910152565b600081518084526127078160208601602086016126cb565b601f01601f19169290920160200192915050565b602081526000611e4760208301846126ef565b60006020828403121561274057600080fd5b5035919050565b80356001600160a01b038116811461275e57600080fd5b919050565b6000806040838503121561277657600080fd5b61277f83612747565b946020939093013593505050565b6000806000606084860312156127a257600080fd5b6127ab84612747565b92506127b960208501612747565b9150604084013590509250925092565b6000602082840312156127db57600080fd5b611e4782612747565b600080604083850312156127f757600080fd5b8235915061280760208401612747565b90509250929050565b634e487b7160e01b600052604160045260246000fd5b600067ffffffffffffffff8084111561284157612841612810565b604051601f8501601f19908116603f0116810190828211818310171561286957612869612810565b8160405280935085815286868601111561288257600080fd5b858560208301376000602087830101525050509392505050565b600080604083850312156128af57600080fd5b823567ffffffffffffffff8111156128c657600080fd5b8301601f810185136128d757600080fd5b6128e685823560208401612826565b95602094909401359450505050565b6000806040838503121561290857600080fd5b61291183612747565b91506020830135801515811461292657600080fd5b809150509250929050565b6000806000806080858703121561294757600080fd5b61295085612747565b935061295e60208601612747565b925060408501359150606085013567ffffffffffffffff81111561298157600080fd5b8501601f8101871361299257600080fd5b6129a187823560208401612826565b91505092959194509250565b600080604083850312156129c057600080fd5b6129c983612747565b915061280760208401612747565b600080604083850312156129ea57600080fd5b50508035926020909101359150565b634e487b7160e01b600052603260045260246000fd5b634e487b7160e01b600052601160045260246000fd5b600060018201612a3757612a37612a0f565b5060010190565b600181811c90821680612a5257607f821691505b602082108103612a7257634e487b7160e01b600052602260045260246000fd5b50919050565b60208082526031908201527f4552433732313a207472616e736665722063616c6c6572206973206e6f74206f6040820152701ddb995c881b9bdc88185c1c1c9bdd9959607a1b606082015260800190565b60208082526022908201527f4e46544d61726b6574706c6163653a20496e73756666696369656e742066756e604082015261647360f01b606082015260800190565b60208082526027908201527f4e46544d61726b6574706c6163653a20546f6b656e20494420646f6573206e6f6040820152661d08195e1a5cdd60ca1b606082015260800190565b60008351612b648184602088016126cb565b835190830190612b788183602088016126cb565b01949350505050565b80820281158282048414176106f4576106f4612a0f565b634e487b7160e01b600052601260045260246000fd5b600082612bbd57612bbd612b98565b500490565b808201808211156106f4576106f4612a0f565b7f416363657373436f6e74726f6c3a206163636f756e7420000000000000000000815260008351612c0d8160178501602088016126cb565b7001034b99036b4b9b9b4b733903937b6329607d1b6017918401918201528351612c3e8160288401602088016126cb565b01602801949350505050565b818103818111156106f4576106f4612a0f565b601f821115610a7457600081815260208120601f850160051c81016020861015612c845750805b601f850160051c820191505b81811015612ca357828155600101612c90565b505050505050565b815167ffffffffffffffff811115612cc557612cc5612810565b612cd981612cd38454612a3e565b84612c5d565b602080601f831160018114612d0e5760008415612cf65750858301515b600019600386901b1c1916600185901b178555612ca3565b600085815260208120601f198616915b82811015612d3d57888601518255948401946001909101908401612d1e565b5085821015612d5b5787850151600019600388901b60f8161c191681555b5050505050600190811b01905550565b60208082526032908201527f4552433732313a207472616e7366657220746f206e6f6e20455243373231526560408201527131b2b4bb32b91034b6b83632b6b2b73a32b960711b606082015260800190565b600081612dcc57612dcc612a0f565b506000190190565b6001600160a01b0385811682528416602082015260408101839052608060608201819052600090612e07908301846126ef565b9695505050505050565b600060208284031215612e2357600080fd5b8151611e4781612619565b600082612e3d57612e3d612b98565b50069056fea264697066735822122028f7631e24fce9a724ec1458137c5c7fc85c985b5ba983461a7867f37d1ac18064736f6c63430008140033",
  "linkReferences": {},
  "deployedLinkReferences": {}
}