{
  "_format": "hh-sol-artifact-1",
  "contractName": "NFTMarketplace",
  "sourceName": "contracts/NFTMarketplace.sol",
  "abi": [
    {
      "inputs": [],
      "stateMutability": "nonpayable",
      "type": "constructor"
    },
    {
      "anonymous": false,
      "inputs": [
        {
          "indexed": true,
          "internalType": "address",
          "name": "owner",
          "type": "address"
        },
        {
          "indexed": true,
          "internalType": "address",
          "name": "approved",
          "type": "address"
        },
        {
          "indexed": true,
          "internalType": "uint256",
          "name": "tokenId",
          "type": "uint256"
        }
      ],
      "name": "Approval",
      "type": "event"
    },
    {
      "anonymous": false,
      "inputs": [
        {
          "indexed": true,
          "internalType": "address",
          "name": "owner",
          "type": "address"
        },
        {
          "indexed": true,
          "internalType": "address",
          "name": "operator",
          "type": "address"
        },
        {
          "indexed": false,
          "internalType": "bool",
          "name": "approved",
          "type": "bool"
        }
      ],
      "name": "ApprovalForAll",
      "type": "event"
    },
    {
      "anonymous": false,
      "inputs": [
        {
          "indexed": true,
          "internalType": "uint256",
          "name": "tokenId",
          "type": "uint256"
        },
        {
          "indexed": false,
          "internalType": "uint256",
          "name": "price",
          "type": "uint256"
        }
      ],
      "name": "NFTPriceSet",
      "type": "event"
    },
    {
      "anonymous": false,
      "inputs": [
        {
          "indexed": true,
          "internalType": "uint256",
          "name": "tokenId",
          "type": "uint256"
        },
        {
          "indexed": true,
          "internalType": "address",
          "name": "buyer",
          "type": "address"
        },
        {
          "indexed": false,
          "internalType": "uint256",
          "name": "price",
          "type": "uint256"
        }
      ],
      "name": "NFTSold",
      "type": "event"
    },
    {
      "anonymous": false,
      "inputs": [
        {
          "indexed": true,
          "internalType": "bytes32",
          "name": "role",
          "type": "bytes32"
        },
        {
          "indexed": true,
          "internalType": "bytes32",
          "name": "previousAdminRole",
          "type": "bytes32"
        },
        {
          "indexed": true,
          "internalType": "bytes32",
          "name": "newAdminRole",
          "type": "bytes32"
        }
      ],
      "name": "RoleAdminChanged",
      "type": "event"
    },
    {
      "anonymous": false,
      "inputs": [
        {
          "indexed": true,
          "internalType": "bytes32",
          "name": "role",
          "type": "bytes32"
        },
        {
          "indexed": true,
          "internalType": "address",
          "name": "account",
          "type": "address"
        },
        {
          "indexed": true,
          "internalType": "address",
          "name": "sender",
          "type": "address"
        }
      ],
      "name": "RoleGranted",
      "type": "event"
    },
    {
      "anonymous": false,
      "inputs": [
        {
          "indexed": true,
          "internalType": "bytes32",
          "name": "role",
          "type": "bytes32"
        },
        {
          "indexed": true,
          "internalType": "address",
          "name": "account",
          "type": "address"
        },
        {
          "indexed": true,
          "internalType": "address",
          "name": "sender",
          "type": "address"
        }
      ],
      "name": "RoleRevoked",
      "type": "event"
    },
    {
      "anonymous": false,
      "inputs": [
        {
          "indexed": true,
          "internalType": "uint256",
          "name": "id",
          "type": "uint256"
        },
        {
          "indexed": true,
          "internalType": "address",
          "name": "owner",
          "type": "address"
        },
        {
          "indexed": true,
          "internalType": "address",
          "name": "creator",
          "type": "address"
        },
        {
          "indexed": false,
          "internalType": "uint256",
          "name": "price",
          "type": "uint256"
        },
        {
          "indexed": false,
          "internalType": "bool",
          "name": "isListed",
          "type": "bool"
        }
      ],
      "name": "TokenListedSuccess",
      "type": "event"
    },
    {
      "anonymous": false,
      "inputs": [
        {
          "indexed": true,
          "internalType": "address",
          "name": "from",
          "type": "address"
        },
        {
          "indexed": true,
          "internalType": "address",
          "name": "to",
          "type": "address"
        },
        {
          "indexed": true,
          "internalType": "uint256",
          "name": "tokenId",
          "type": "uint256"
        }
      ],
      "name": "Transfer",
      "type": "event"
    },
    {
      "inputs": [],
      "name": "ADMIN_ROLE",
      "outputs": [
        {
          "internalType": "bytes32",
          "name": "",
          "type": "bytes32"
        }
      ],
      "stateMutability": "view",
      "type": "function"
    },
    {
      "inputs": [],
      "name": "BUYER_ROLE",
      "outputs": [
        {
          "internalType": "bytes32",
          "name": "",
          "type": "bytes32"
        }
      ],
      "stateMutability": "view",
      "type": "function"
    },
    {
      "inputs": [],
      "name": "CONTRACT_FEE_PERCENT",
      "outputs": [
        {
          "internalType": "uint256",
          "name": "",
          "type": "uint256"
        }
      ],
      "stateMutability": "view",
      "type": "function"
    },
    {
      "inputs": [],
      "name": "CREATOR_ROLE",
      "outputs": [
        {
          "internalType": "bytes32",
          "name": "",
          "type": "bytes32"
        }
      ],
      "stateMutability": "view",
      "type": "function"
    },
    {
      "inputs": [],
      "name": "DEFAULT_ADMIN_ROLE",
      "outputs": [
        {
          "internalType": "bytes32",
          "name": "",
          "type": "bytes32"
        }
      ],
      "stateMutability": "view",
      "type": "function"
    },
    {
      "inputs": [],
      "name": "SELLER_ROLE",
      "outputs": [
        {
          "internalType": "bytes32",
          "name": "",
          "type": "bytes32"
        }
      ],
      "stateMutability": "view",
      "type": "function"
    },
    {
      "inputs": [
        {
          "internalType": "address",
          "name": "to",
          "type": "address"
        },
        {
          "internalType": "uint256",
          "name": "tokenId",
          "type": "uint256"
        }
      ],
      "name": "approve",
      "outputs": [],
      "stateMutability": "nonpayable",
      "type": "function"
    },
    {
      "inputs": [
        {
          "internalType": "address",
          "name": "_address",
          "type": "address"
        },
        {
          "internalType": "bytes32",
          "name": "_role",
          "type": "bytes32"
        }
      ],
      "name": "assignRole",
      "outputs": [],
      "stateMutability": "nonpayable",
      "type": "function"
    },
    {
      "inputs": [
        {
          "internalType": "address",
          "name": "owner",
          "type": "address"
        }
      ],
      "name": "balanceOf",
      "outputs": [
        {
          "internalType": "uint256",
          "name": "",
          "type": "uint256"
        }
      ],
      "stateMutability": "view",
      "type": "function"
    },
    {
      "inputs": [
        {
          "internalType": "address",
          "name": "",
          "type": "address"
        }
      ],
      "name": "balances",
      "outputs": [
        {
          "internalType": "uint256",
          "name": "",
          "type": "uint256"
        }
      ],
      "stateMutability": "view",
      "type": "function"
    },
    {
      "inputs": [
        {
          "internalType": "uint256",
          "name": "_tokenId",
          "type": "uint256"
        }
      ],
      "name": "buyNFT",
      "outputs": [],
      "stateMutability": "payable",
      "type": "function"
    },
    {
      "inputs": [
        {
          "internalType": "string",
          "name": "tokenURI",
          "type": "string"
        },
        {
          "internalType": "uint256",
          "name": "price",
          "type": "uint256"
        }
      ],
      "name": "createToken",
      "outputs": [
        {
          "internalType": "uint256",
          "name": "",
          "type": "uint256"
        }
      ],
      "stateMutability": "payable",
      "type": "function"
    },
    {
      "inputs": [],
      "name": "getAllNfts",
      "outputs": [
        {
          "components": [
            {
              "internalType": "uint256",
              "name": "tokenId",
              "type": "uint256"
            },
            {
              "internalType": "address payable",
              "name": "owner",
              "type": "address"
            },
            {
              "internalType": "address payable",
              "name": "creator",
              "type": "address"
            },
            {
              "internalType": "uint256",
              "name": "price",
              "type": "uint256"
            },
            {
              "internalType": "bool",
              "name": "isListed",
              "type": "bool"
            }
          ],
          "internalType": "struct NFTMarketplace.ListedToken[]",
          "name": "",
          "type": "tuple[]"
        }
      ],
      "stateMutability": "view",
      "type": "function"
    },
    {
      "inputs": [
        {
          "internalType": "uint256",
          "name": "tokenId",
          "type": "uint256"
        }
      ],
      "name": "getApproved",
      "outputs": [
        {
          "internalType": "address",
          "name": "",
          "type": "address"
        }
      ],
      "stateMutability": "view",
      "type": "function"
    },
    {
      "inputs": [],
      "name": "getMyNfts",
      "outputs": [
        {
          "components": [
            {
              "internalType": "uint256",
              "name": "tokenId",
              "type": "uint256"
            },
            {
              "internalType": "address payable",
              "name": "owner",
              "type": "address"
            },
            {
              "internalType": "address payable",
              "name": "creator",
              "type": "address"
            },
            {
              "internalType": "uint256",
              "name": "price",
              "type": "uint256"
            },
            {
              "internalType": "bool",
              "name": "isListed",
              "type": "bool"
            }
          ],
          "internalType": "struct NFTMarketplace.ListedToken[]",
          "name": "",
          "type": "tuple[]"
        }
      ],
      "stateMutability": "view",
      "type": "function"
    },
    {
      "inputs": [
        {
          "internalType": "bytes32",
          "name": "role",
          "type": "bytes32"
        }
      ],
      "name": "getRoleAdmin",
      "outputs": [
        {
          "internalType": "bytes32",
          "name": "",
          "type": "bytes32"
        }
      ],
      "stateMutability": "view",
      "type": "function"
    },
    {
      "inputs": [
        {
          "internalType": "uint256",
          "name": "_tokenId",
          "type": "uint256"
        }
      ],
      "name": "getTokenURI",
      "outputs": [
        {
          "internalType": "string",
          "name": "",
          "type": "string"
        }
      ],
      "stateMutability": "view",
      "type": "function"
    },
    {
      "inputs": [
        {
          "internalType": "bytes32",
          "name": "role",
          "type": "bytes32"
        },
        {
          "internalType": "address",
          "name": "account",
          "type": "address"
        }
      ],
      "name": "grantRole",
      "outputs": [],
      "stateMutability": "nonpayable",
      "type": "function"
    },
    {
      "inputs": [
        {
          "internalType": "bytes32",
          "name": "role",
          "type": "bytes32"
        },
        {
          "internalType": "address",
          "name": "account",
          "type": "address"
        }
      ],
      "name": "hasRole",
      "outputs": [
        {
          "internalType": "bool",
          "name": "",
          "type": "bool"
        }
      ],
      "stateMutability": "view",
      "type": "function"
    },
    {
      "inputs": [
        {
          "internalType": "address",
          "name": "owner",
          "type": "address"
        },
        {
          "internalType": "address",
          "name": "operator",
          "type": "address"
        }
      ],
      "name": "isApprovedForAll",
      "outputs": [
        {
          "internalType": "bool",
          "name": "",
          "type": "bool"
        }
      ],
      "stateMutability": "view",
      "type": "function"
    },
    {
      "inputs": [],
      "name": "name",
      "outputs": [
        {
          "internalType": "string",
          "name": "",
          "type": "string"
        }
      ],
      "stateMutability": "view",
      "type": "function"
    },
    {
      "inputs": [
        {
          "internalType": "uint256",
          "name": "",
          "type": "uint256"
        }
      ],
      "name": "nftPrices",
      "outputs": [
        {
          "internalType": "uint256",
          "name": "",
          "type": "uint256"
        }
      ],
      "stateMutability": "view",
      "type": "function"
    },
    {
      "inputs": [],
      "name": "owner",
      "outputs": [
        {
          "internalType": "address payable",
          "name": "",
          "type": "address"
        }
      ],
      "stateMutability": "view",
      "type": "function"
    },
    {
      "inputs": [
        {
          "internalType": "uint256",
          "name": "tokenId",
          "type": "uint256"
        }
      ],
      "name": "ownerOf",
      "outputs": [
        {
          "internalType": "address",
          "name": "",
          "type": "address"
        }
      ],
      "stateMutability": "view",
      "type": "function"
    },
    {
      "inputs": [
        {
          "internalType": "bytes32",
          "name": "role",
          "type": "bytes32"
        },
        {
          "internalType": "address",
          "name": "account",
          "type": "address"
        }
      ],
      "name": "renounceRole",
      "outputs": [],
      "stateMutability": "nonpayable",
      "type": "function"
    },
    {
      "inputs": [
        {
          "internalType": "address",
          "name": "_address",
          "type": "address"
        },
        {
          "internalType": "bytes32",
          "name": "_role",
          "type": "bytes32"
        }
      ],
      "name": "revokeRole",
      "outputs": [],
      "stateMutability": "nonpayable",
      "type": "function"
    },
    {
      "inputs": [
        {
          "internalType": "bytes32",
          "name": "role",
          "type": "bytes32"
        },
        {
          "internalType": "address",
          "name": "account",
          "type": "address"
        }
      ],
      "name": "revokeRole",
      "outputs": [],
      "stateMutability": "nonpayable",
      "type": "function"
    },
    {
      "inputs": [
        {
          "internalType": "address",
          "name": "from",
          "type": "address"
        },
        {
          "internalType": "address",
          "name": "to",
          "type": "address"
        },
        {
          "internalType": "uint256",
          "name": "tokenId",
          "type": "uint256"
        }
      ],
      "name": "safeTransferFrom",
      "outputs": [],
      "stateMutability": "nonpayable",
      "type": "function"
    },
    {
      "inputs": [
        {
          "internalType": "address",
          "name": "from",
          "type": "address"
        },
        {
          "internalType": "address",
          "name": "to",
          "type": "address"
        },
        {
          "internalType": "uint256",
          "name": "tokenId",
          "type": "uint256"
        },
        {
          "internalType": "bytes",
          "name": "_data",
          "type": "bytes"
        }
      ],
      "name": "safeTransferFrom",
      "outputs": [],
      "stateMutability": "nonpayable",
      "type": "function"
    },
    {
      "inputs": [
        {
          "internalType": "uint256",
          "name": "_tokenId",
          "type": "uint256"
        }
      ],
      "name": "sellNfts",
      "outputs": [],
      "stateMutability": "payable",
      "type": "function"
    },
    {
      "inputs": [
        {
          "internalType": "address",
          "name": "operator",
          "type": "address"
        },
        {
          "internalType": "bool",
          "name": "approved",
          "type": "bool"
        }
      ],
      "name": "setApprovalForAll",
      "outputs": [],
      "stateMutability": "nonpayable",
      "type": "function"
    },
    {
      "inputs": [
        {
          "internalType": "uint256",
          "name": "_tokenId",
          "type": "uint256"
        },
        {
          "internalType": "uint256",
          "name": "_price",
          "type": "uint256"
        }
      ],
      "name": "setPrice",
      "outputs": [],
      "stateMutability": "nonpayable",
      "type": "function"
    },
    {
      "inputs": [
        {
          "internalType": "bytes4",
          "name": "interfaceId",
          "type": "bytes4"
        }
      ],
      "name": "supportsInterface",
      "outputs": [
        {
          "internalType": "bool",
          "name": "",
          "type": "bool"
        }
      ],
      "stateMutability": "view",
      "type": "function"
    },
    {
      "inputs": [],
      "name": "symbol",
      "outputs": [
        {
          "internalType": "string",
          "name": "",
          "type": "string"
        }
      ],
      "stateMutability": "view",
      "type": "function"
    },
    {
      "inputs": [
        {
          "internalType": "uint256",
          "name": "tokenId",
          "type": "uint256"
        }
      ],
      "name": "tokenURI",
      "outputs": [
        {
          "internalType": "string",
          "name": "",
          "type": "string"
        }
      ],
      "stateMutability": "view",
      "type": "function"
    },
    {
      "inputs": [
        {
          "internalType": "address",
          "name": "from",
          "type": "address"
        },
        {
          "internalType": "address",
          "name": "to",
          "type": "address"
        },
        {
          "internalType": "uint256",
          "name": "tokenId",
          "type": "uint256"
        }
      ],
      "name": "transferFrom",
      "outputs": [],
      "stateMutability": "nonpayable",
      "type": "function"
    },
    {
      "inputs": [],
      "name": "withdraw",
      "outputs": [],
      "stateMutability": "nonpayable",
      "type": "function"
    }
  ],
  "bytecode": "0x608060405266038d7ea4c68000600a553480156200001c57600080fd5b506040518060400160405280600e81526020016d4e46544d61726b6574706c61636560901b815250604051806040016040528060048152602001634e46544d60e01b815250816001908162000072919062000221565b50600262000081828262000221565b5050600980546001600160a01b03191633908117909155620000c691507fa49807205ce4d355092ef5a8a18f56e8913cf4a201fbe287825b095693c2177590620000cc565b620002ed565b620000d88282620000dc565b5050565b6000828152602081815260408083206001600160a01b038516845290915290205460ff16620000d8576000828152602081815260408083206001600160a01b03851684529091529020805460ff19166001179055620001383390565b6001600160a01b0316816001600160a01b0316837f2f8788117e7eff1d82e926ec794901d17c78024a50270940304540a733656f0d60405160405180910390a45050565b634e487b7160e01b600052604160045260246000fd5b600181811c90821680620001a757607f821691505b602082108103620001c857634e487b7160e01b600052602260045260246000fd5b50919050565b601f8211156200021c57600081815260208120601f850160051c81016020861015620001f75750805b601f850160051c820191505b81811015620002185782815560010162000203565b5050505b505050565b81516001600160401b038111156200023d576200023d6200017c565b62000255816200024e845462000192565b84620001ce565b602080601f8311600181146200028d5760008415620002745750858301515b600019600386901b1c1916600185901b17855562000218565b600085815260208120601f198616915b82811015620002be578886015182559484019460019091019084016200029d565b5085821015620002dd5787850151600019600388901b60f8161c191681555b5050505050600190811b01905550565b612cbd80620002fd6000396000f3fe60806040526004361061021a5760003560e01c806372b3b62011610123578063a217fddf116100ab578063d9f10a2b1161006f578063d9f10a2b14610668578063dac1783814610695578063dbe4613d146106a8578063e985e9c5146106dc578063f7d975771461072557600080fd5b8063a217fddf146105d3578063a22cb465146105e8578063b88d4fde14610608578063c87b56dd14610628578063d547741f1461064857600080fd5b80638aeda25a116100f25780638aeda25a146105355780638da5cb5b1461056957806390587ef51461058957806391d148541461059e57806395d89b41146105be57600080fd5b806372b3b620146104a5578063732e8d73146104b857806375b238fc146104cd5780637a01a1da1461050157600080fd5b806327e235e3116101a65780633ccfd60b116101755780633ccfd60b1461041d57806342842e0e1461043257806351ed8288146104525780636352211e1461046557806370a082311461048557600080fd5b806327e235e3146103905780632f2ff15d146103bd57806336568abe146103dd5780633bb3a24d146103fd57600080fd5b8063095ea7b3116101ed578063095ea7b3146102d05780631d9486de146102f2578063208dd1ff1461031257806323b872dd14610332578063248a9ca31461035257600080fd5b806301ffc9a71461021f578063047b07bf1461025457806306fdde0314610276578063081812fc14610298575b600080fd5b34801561022b57600080fd5b5061023f61023a366004612477565b610745565b60405190151581526020015b60405180910390f35b34801561026057600080fd5b50610269610756565b60405161024b9190612494565b34801561028257600080fd5b5061028b6108a1565b60405161024b9190612560565b3480156102a457600080fd5b506102b86102b3366004612573565b610933565b6040516001600160a01b03909116815260200161024b565b3480156102dc57600080fd5b506102f06102eb3660046125a8565b6109c0565b005b3480156102fe57600080fd5b506102f061030d3660046125a8565b610ad5565b34801561031e57600080fd5b506102f061032d3660046125a8565b610b0a565b34801561033e57600080fd5b506102f061034d3660046125d2565b610b3f565b34801561035e57600080fd5b5061038261036d366004612573565b60009081526020819052604090206001015490565b60405190815260200161024b565b34801561039c57600080fd5b506103826103ab36600461260e565b600c6020526000908152604090205481565b3480156103c957600080fd5b506102f06103d8366004612629565b610b70565b3480156103e957600080fd5b506102f06103f8366004612629565b610b96565b34801561040957600080fd5b5061028b610418366004612573565b610c14565b34801561042957600080fd5b506102f0610c1f565b34801561043e57600080fd5b506102f061044d3660046125d2565b610cca565b6102f0610460366004612573565b610ce5565b34801561047157600080fd5b506102b8610480366004612573565b610e86565b34801561049157600080fd5b506103826104a036600461260e565b610efd565b6103826104b33660046126e1565b610f84565b3480156104c457600080fd5b50610269610ff2565b3480156104d957600080fd5b506103827fa49807205ce4d355092ef5a8a18f56e8913cf4a201fbe287825b095693c2177581565b34801561050d57600080fd5b506103827ff8cd32ed93fc2f9fc78152a14807c9609af3d99c5fe4dc6b106a801aaddfe90e81565b34801561054157600080fd5b506103827f828634d95e775031b9ff576b159a8509d3053581a8c9c4d7d86899e0afcd882f81565b34801561057557600080fd5b506009546102b8906001600160a01b031681565b34801561059557600080fd5b50610382600581565b3480156105aa57600080fd5b5061023f6105b9366004612629565b611113565b3480156105ca57600080fd5b5061028b61113c565b3480156105df57600080fd5b50610382600081565b3480156105f457600080fd5b506102f061060336600461273a565b61114b565b34801561061457600080fd5b506102f0610623366004612776565b611156565b34801561063457600080fd5b5061028b610643366004612573565b61118e565b34801561065457600080fd5b506102f0610663366004612629565b6112fc565b34801561067457600080fd5b50610382610683366004612573565b600b6020526000908152604090205481565b6102f06106a3366004612573565b611322565b3480156106b457600080fd5b506103827f43f25613eb2f15fb17222a5d424ca2655743e71265d98e4b93c05e5fb589ecde81565b3480156106e857600080fd5b5061023f6106f73660046127f2565b6001600160a01b03918216600090815260066020908152604080832093909416825291909152205460ff1690565b34801561073157600080fd5b506102f061074036600461281c565b6115e0565b600061075082611682565b92915050565b6060600061076360085490565b905060008167ffffffffffffffff81111561078057610780612655565b6040519080825280602002602001820160405280156107d957816020015b6040805160a08101825260008082526020808301829052928201819052606082018190526080820152825260001990920191018161079e5790505b50905060005b8281101561089a576000818152600d6020526040902060010154336001600160a01b0390911603610888576000818152600d6020908152604091829020825160a0810184528154815260018201546001600160a01b03908116938201939093526002820154909216928201929092526003820154606082015260049091015460ff1615156080820152825183908390811061087c5761087c61283e565b60200260200101819052505b806108928161286a565b9150506107df565b5092915050565b6060600180546108b090612883565b80601f01602080910402602001604051908101604052809291908181526020018280546108dc90612883565b80156109295780601f106108fe57610100808354040283529160200191610929565b820191906000526020600020905b81548152906001019060200180831161090c57829003601f168201915b5050505050905090565b600061093e826116c2565b6109a45760405162461bcd60e51b815260206004820152602c60248201527f4552433732313a20617070726f76656420717565727920666f72206e6f6e657860448201526b34b9ba32b73a103a37b5b2b760a11b60648201526084015b60405180910390fd5b506000908152600560205260409020546001600160a01b031690565b60006109cb82610e86565b9050806001600160a01b0316836001600160a01b031603610a385760405162461bcd60e51b815260206004820152602160248201527f4552433732313a20617070726f76616c20746f2063757272656e74206f776e656044820152603960f91b606482015260840161099b565b336001600160a01b0382161480610a545750610a5481336106f7565b610ac65760405162461bcd60e51b815260206004820152603860248201527f4552433732313a20617070726f76652063616c6c6572206973206e6f74206f7760448201527f6e6572206e6f7220617070726f76656420666f7220616c6c0000000000000000606482015260840161099b565b610ad083836116df565b505050565b7fa49807205ce4d355092ef5a8a18f56e8913cf4a201fbe287825b095693c21775610b00813361174d565b610ad08284610b70565b7fa49807205ce4d355092ef5a8a18f56e8913cf4a201fbe287825b095693c21775610b35813361174d565b610ad082846112fc565b610b4933826117b1565b610b655760405162461bcd60e51b815260040161099b906128bd565b610ad0838383611897565b600082815260208190526040902060010154610b8c813361174d565b610ad08383611a37565b6001600160a01b0381163314610c065760405162461bcd60e51b815260206004820152602f60248201527f416363657373436f6e74726f6c3a2063616e206f6e6c792072656e6f756e636560448201526e103937b632b9903337b91039b2b63360891b606482015260840161099b565b610c108282611abb565b5050565b60606107508261118e565b336000818152600c6020526040808220805490839055905190929083908381818185875af1925050503d8060008114610c74576040519150601f19603f3d011682016040523d82523d6000602084013e610c79565b606091505b5050905080610c105760405162461bcd60e51b815260206004820152601f60248201527f4e46544d61726b6574706c6163653a205472616e73666572206661696c656400604482015260640161099b565b610ad083838360405180602001604052806000815250611156565b7ff8cd32ed93fc2f9fc78152a14807c9609af3d99c5fe4dc6b106a801aaddfe90e610d10813361174d565b6000828152600b6020526040902054610d6b5760405162461bcd60e51b815260206004820181905260248201527f4e46544d61726b6574706c6163653a204e4654206e6f7420666f722073616c65604482015260640161099b565b6000828152600b6020526040902054341015610d995760405162461bcd60e51b815260040161099b9061290e565b6000610da483610e86565b6000848152600b6020526040812054919250610dcc6064610dc6846005611b20565b90611b33565b90506000610dda8383611b3f565b6001600160a01b0385166000908152600c6020526040902054909150610e009082611b4b565b6001600160a01b0385166000908152600c6020526040808220929092553081522054610e2c9083611b4b565b306000908152600c6020526040902055610e47843388611897565b604051838152339087907f6329e40c0365262ebbff5ca819385c2b9713dcaa050ed07866d72c441395699a9060200160405180910390a3505050505050565b6000818152600360205260408120546001600160a01b0316806107505760405162461bcd60e51b815260206004820152602960248201527f4552433732313a206f776e657220717565727920666f72206e6f6e657869737460448201526832b73a103a37b5b2b760b91b606482015260840161099b565b60006001600160a01b038216610f685760405162461bcd60e51b815260206004820152602a60248201527f4552433732313a2062616c616e636520717565727920666f7220746865207a65604482015269726f206164647265737360b01b606482015260840161099b565b506001600160a01b031660009081526004602052604090205490565b60007f828634d95e775031b9ff576b159a8509d3053581a8c9c4d7d86899e0afcd882f610fb1813361174d565b610fbf600880546001019055565b6000610fca60085490565b9050610fd63382611b57565b610fe08186611b71565b610fea8185611bf5565b949350505050565b60606000610fff60085490565b905060008167ffffffffffffffff81111561101c5761101c612655565b60405190808252806020026020018201604052801561107557816020015b6040805160a08101825260008082526020808301829052928201819052606082018190526080820152825260001990920191018161103a5790505b50905060005b8281101561089a576000818152600d6020908152604091829020825160a0810184528154815260018201546001600160a01b03908116938201939093526002820154909216928201929092526003820154606082015260049091015460ff161515608082015282518390839081106110f5576110f561283e565b6020026020010181905250808061110b9061286a565b91505061107b565b6000918252602082815260408084206001600160a01b0393909316845291905290205460ff1690565b6060600280546108b090612883565b610c10338383611d55565b61116033836117b1565b61117c5760405162461bcd60e51b815260040161099b906128bd565b61118884848484611e1b565b50505050565b6060611199826116c2565b6111ff5760405162461bcd60e51b815260206004820152603160248201527f45524337323155524953746f726167653a2055524920717565727920666f72206044820152703737b732bc34b9ba32b73a103a37b5b2b760791b606482015260840161099b565b6000828152600760205260408120805461121890612883565b80601f016020809104026020016040519081016040528092919081815260200182805461124490612883565b80156112915780601f1061126657610100808354040283529160200191611291565b820191906000526020600020905b81548152906001019060200180831161127457829003601f168201915b5050505050905060006112af60408051602081019091526000815290565b905080516000036112c1575092915050565b8151156112f35780826040516020016112db929190612950565b60405160208183030381529060405292505050919050565b610fea84611e4e565b600082815260208190526040902060010154611318813361174d565b610ad08383611abb565b6000818152600d602052604090206004015460ff166113835760405162461bcd60e51b815260206004820152601e60248201527f4e46544d61726b6574706c6163653a204e4654206e6f74206c69737465640000604482015260640161099b565b6113ad7f43f25613eb2f15fb17222a5d424ca2655743e71265d98e4b93c05e5fb589ecde33611113565b6114085760405162461bcd60e51b815260206004820152602660248201527f4e46544d61726b6574706c6163653a2043616c6c6572206973206e6f7420612060448201526539b2b63632b960d11b606482015260840161099b565b6000818152600d60205260409020600301543410156114395760405162461bcd60e51b815260040161099b9061290e565b6000818152600d60205260409020600181018054600390920154336001600160a01b0319841681179092556001600160a01b03909216919061147d90309085611897565b61148733846116df565b606461149434605f61297f565b61149e91906129ac565b6001600160a01b0383166000908152600c6020526040812080549091906114c69084906129c0565b90915550606490506114d934600561297f565b6114e391906129ac565b306000908152600c6020526040812080549091906115029084906129c0565b90915550506001600160a01b0382166108fc606461152134605f61297f565b61152b91906129ac565b6040518115909202916000818181858888f19350505050158015611553573d6000803e3d6000fd5b506009546001600160a01b03166108fc606461157034600561297f565b61157a91906129ac565b6040518115909202916000818181858888f193505050501580156115a2573d6000803e3d6000fd5b50604051818152339084907f6329e40c0365262ebbff5ca819385c2b9713dcaa050ed07866d72c441395699a906020015b60405180910390a3505050565b7f43f25613eb2f15fb17222a5d424ca2655743e71265d98e4b93c05e5fb589ecde61160b813361174d565b611614836116c2565b6116305760405162461bcd60e51b815260040161099b906129d3565b6000838152600b6020526040908190208390555183907f61cbb787cac798aa7b3f71801e31103a59e4f6e2cf21cb9c3696d5bc076060ab906116759085815260200190565b60405180910390a2505050565b60006001600160e01b031982166380ac58cd60e01b14806116b357506001600160e01b03198216635b5e139f60e01b145b80610750575061075082611f25565b6000908152600360205260409020546001600160a01b0316151590565b600081815260056020526040902080546001600160a01b0319166001600160a01b038416908117909155819061171482610e86565b6001600160a01b03167f8c5be1e5ebec7d5bd14f71427d1e84f3dd0314c0f7b2291e5b200ac8c7c3b92560405160405180910390a45050565b6117578282611113565b610c105761176f816001600160a01b03166014611f5a565b61177a836020611f5a565b60405160200161178b929190612a1a565b60408051601f198184030181529082905262461bcd60e51b825261099b91600401612560565b60006117bc826116c2565b61181d5760405162461bcd60e51b815260206004820152602c60248201527f4552433732313a206f70657261746f7220717565727920666f72206e6f6e657860448201526b34b9ba32b73a103a37b5b2b760a11b606482015260840161099b565b600061182883610e86565b9050806001600160a01b0316846001600160a01b031614806118635750836001600160a01b031661185884610933565b6001600160a01b0316145b80610fea57506001600160a01b0380821660009081526006602090815260408083209388168352929052205460ff16610fea565b826001600160a01b03166118aa82610e86565b6001600160a01b0316146119125760405162461bcd60e51b815260206004820152602960248201527f4552433732313a207472616e73666572206f6620746f6b656e2074686174206960448201526839903737ba1037bbb760b91b606482015260840161099b565b6001600160a01b0382166119745760405162461bcd60e51b8152602060048201526024808201527f4552433732313a207472616e7366657220746f20746865207a65726f206164646044820152637265737360e01b606482015260840161099b565b61197f6000826116df565b6001600160a01b03831660009081526004602052604081208054600192906119a8908490612a8f565b90915550506001600160a01b03821660009081526004602052604081208054600192906119d69084906129c0565b909155505060008181526003602052604080822080546001600160a01b0319166001600160a01b0386811691821790925591518493918716917fddf252ad1be2c89b69c2b068fc378daa952ba7f163c4a11628f55a4df523b3ef91a4505050565b611a418282611113565b610c10576000828152602081815260408083206001600160a01b03851684529091529020805460ff19166001179055611a773390565b6001600160a01b0316816001600160a01b0316837f2f8788117e7eff1d82e926ec794901d17c78024a50270940304540a733656f0d60405160405180910390a45050565b611ac58282611113565b15610c10576000828152602081815260408083206001600160a01b0385168085529252808320805460ff1916905551339285917ff6391f5c32d9c69d2a47ea670b442974b53935d1edc7fd64eb21e047a839171b9190a45050565b6000611b2c828461297f565b9392505050565b6000611b2c82846129ac565b6000611b2c8284612a8f565b6000611b2c82846129c0565b610c108282604051806020016040528060008152506120f6565b611b7a826116c2565b611bdd5760405162461bcd60e51b815260206004820152602e60248201527f45524337323155524953746f726167653a2055524920736574206f66206e6f6e60448201526d32bc34b9ba32b73a103a37b5b2b760911b606482015260840161099b565b6000828152600760205260409020610ad08282612af0565b7f828634d95e775031b9ff576b159a8509d3053581a8c9c4d7d86899e0afcd882f611c20813361174d565b611c29836116c2565b611c455760405162461bcd60e51b815260040161099b906129d3565b6000838152600b6020908152604091829020849055815160a0810183528581523391810191909152908101611c7985610e86565b6001600160a01b0390811682526020808301869052600160409384018190526000888152600d8352849020855181559185015190820180549184166001600160a01b0319928316179055928401516002820180549190931693168317909155606083015160038201556080909201516004909201805492151560ff1990931692909217909155611d0884610e86565b60408051858152600160208201526001600160a01b03929092169186917f9339409317fd01fabff48b703019016f49159bacc801ae872d2ca637d226e4c0910160405180910390a4505050565b816001600160a01b0316836001600160a01b031603611db65760405162461bcd60e51b815260206004820152601960248201527f4552433732313a20617070726f766520746f2063616c6c657200000000000000604482015260640161099b565b6001600160a01b03838116600081815260066020908152604080832094871680845294825291829020805460ff191686151590811790915591519182527f17307eab39ab6107e8899845ad3d59bd9653f200f220920489ca2b5937696c3191016115d3565b611e26848484611897565b611e3284848484612129565b6111885760405162461bcd60e51b815260040161099b90612bb0565b6060611e59826116c2565b611ebd5760405162461bcd60e51b815260206004820152602f60248201527f4552433732314d657461646174613a2055524920717565727920666f72206e6f60448201526e3732bc34b9ba32b73a103a37b5b2b760891b606482015260840161099b565b6000611ed460408051602081019091526000815290565b90506000815111611ef45760405180602001604052806000815250611b2c565b80611efe8461222a565b604051602001611f0f929190612950565b6040516020818303038152906040529392505050565b60006001600160e01b03198216637965db0b60e01b148061075057506301ffc9a760e01b6001600160e01b0319831614610750565b60606000611f6983600261297f565b611f749060026129c0565b67ffffffffffffffff811115611f8c57611f8c612655565b6040519080825280601f01601f191660200182016040528015611fb6576020820181803683370190505b509050600360fc1b81600081518110611fd157611fd161283e565b60200101906001600160f81b031916908160001a905350600f60fb1b816001815181106120005761200061283e565b60200101906001600160f81b031916908160001a905350600061202484600261297f565b61202f9060016129c0565b90505b60018111156120a7576f181899199a1a9b1b9c1cb0b131b232b360811b85600f16601081106120635761206361283e565b1a60f81b8282815181106120795761207961283e565b60200101906001600160f81b031916908160001a90535060049490941c936120a081612c02565b9050612032565b508315611b2c5760405162461bcd60e51b815260206004820181905260248201527f537472696e67733a20686578206c656e67746820696e73756666696369656e74604482015260640161099b565b612100838361232b565b61210d6000848484612129565b610ad05760405162461bcd60e51b815260040161099b90612bb0565b60006001600160a01b0384163b1561221f57604051630a85bd0160e11b81526001600160a01b0385169063150b7a029061216d903390899088908890600401612c19565b6020604051808303816000875af19250505080156121a8575060408051601f3d908101601f191682019092526121a591810190612c56565b60015b612205573d8080156121d6576040519150601f19603f3d011682016040523d82523d6000602084013e6121db565b606091505b5080516000036121fd5760405162461bcd60e51b815260040161099b90612bb0565b805181602001fd5b6001600160e01b031916630a85bd0160e11b149050610fea565b506001949350505050565b6060816000036122515750506040805180820190915260018152600360fc1b602082015290565b8160005b811561227b57806122658161286a565b91506122749050600a836129ac565b9150612255565b60008167ffffffffffffffff81111561229657612296612655565b6040519080825280601f01601f1916602001820160405280156122c0576020820181803683370190505b5090505b8415610fea576122d5600183612a8f565b91506122e2600a86612c73565b6122ed9060306129c0565b60f81b8183815181106123025761230261283e565b60200101906001600160f81b031916908160001a905350612324600a866129ac565b94506122c4565b6001600160a01b0382166123815760405162461bcd60e51b815260206004820181905260248201527f4552433732313a206d696e7420746f20746865207a65726f2061646472657373604482015260640161099b565b61238a816116c2565b156123d75760405162461bcd60e51b815260206004820152601c60248201527f4552433732313a20746f6b656e20616c7265616479206d696e74656400000000604482015260640161099b565b6001600160a01b03821660009081526004602052604081208054600192906124009084906129c0565b909155505060008181526003602052604080822080546001600160a01b0319166001600160a01b03861690811790915590518392907fddf252ad1be2c89b69c2b068fc378daa952ba7f163c4a11628f55a4df523b3ef908290a45050565b6001600160e01b03198116811461247457600080fd5b50565b60006020828403121561248957600080fd5b8135611b2c8161245e565b602080825282518282018190526000919060409081850190868401855b8281101561250357815180518552868101516001600160a01b03908116888701528682015116868601526060808201519086015260809081015115159085015260a090930192908501906001016124b1565b5091979650505050505050565b60005b8381101561252b578181015183820152602001612513565b50506000910152565b6000815180845261254c816020860160208601612510565b601f01601f19169290920160200192915050565b602081526000611b2c6020830184612534565b60006020828403121561258557600080fd5b5035919050565b80356001600160a01b03811681146125a357600080fd5b919050565b600080604083850312156125bb57600080fd5b6125c48361258c565b946020939093013593505050565b6000806000606084860312156125e757600080fd5b6125f08461258c565b92506125fe6020850161258c565b9150604084013590509250925092565b60006020828403121561262057600080fd5b611b2c8261258c565b6000806040838503121561263c57600080fd5b8235915061264c6020840161258c565b90509250929050565b634e487b7160e01b600052604160045260246000fd5b600067ffffffffffffffff8084111561268657612686612655565b604051601f8501601f19908116603f011681019082821181831017156126ae576126ae612655565b816040528093508581528686860111156126c757600080fd5b858560208301376000602087830101525050509392505050565b600080604083850312156126f457600080fd5b823567ffffffffffffffff81111561270b57600080fd5b8301601f8101851361271c57600080fd5b61272b8582356020840161266b565b95602094909401359450505050565b6000806040838503121561274d57600080fd5b6127568361258c565b91506020830135801515811461276b57600080fd5b809150509250929050565b6000806000806080858703121561278c57600080fd5b6127958561258c565b93506127a36020860161258c565b925060408501359150606085013567ffffffffffffffff8111156127c657600080fd5b8501601f810187136127d757600080fd5b6127e68782356020840161266b565b91505092959194509250565b6000806040838503121561280557600080fd5b61280e8361258c565b915061264c6020840161258c565b6000806040838503121561282f57600080fd5b50508035926020909101359150565b634e487b7160e01b600052603260045260246000fd5b634e487b7160e01b600052601160045260246000fd5b60006001820161287c5761287c612854565b5060010190565b600181811c9082168061289757607f821691505b6020821081036128b757634e487b7160e01b600052602260045260246000fd5b50919050565b60208082526031908201527f4552433732313a207472616e736665722063616c6c6572206973206e6f74206f6040820152701ddb995c881b9bdc88185c1c1c9bdd9959607a1b606082015260800190565b60208082526022908201527f4e46544d61726b6574706c6163653a20496e73756666696369656e742066756e604082015261647360f01b606082015260800190565b60008351612962818460208801612510565b835190830190612976818360208801612510565b01949350505050565b808202811582820484141761075057610750612854565b634e487b7160e01b600052601260045260246000fd5b6000826129bb576129bb612996565b500490565b8082018082111561075057610750612854565b60208082526027908201527f4e46544d61726b6574706c6163653a20546f6b656e20494420646f6573206e6f6040820152661d08195e1a5cdd60ca1b606082015260800190565b7f416363657373436f6e74726f6c3a206163636f756e7420000000000000000000815260008351612a52816017850160208801612510565b7001034b99036b4b9b9b4b733903937b6329607d1b6017918401918201528351612a83816028840160208801612510565b01602801949350505050565b8181038181111561075057610750612854565b601f821115610ad057600081815260208120601f850160051c81016020861015612ac95750805b601f850160051c820191505b81811015612ae857828155600101612ad5565b505050505050565b815167ffffffffffffffff811115612b0a57612b0a612655565b612b1e81612b188454612883565b84612aa2565b602080601f831160018114612b535760008415612b3b5750858301515b600019600386901b1c1916600185901b178555612ae8565b600085815260208120601f198616915b82811015612b8257888601518255948401946001909101908401612b63565b5085821015612ba05787850151600019600388901b60f8161c191681555b5050505050600190811b01905550565b60208082526032908201527f4552433732313a207472616e7366657220746f206e6f6e20455243373231526560408201527131b2b4bb32b91034b6b83632b6b2b73a32b960711b606082015260800190565b600081612c1157612c11612854565b506000190190565b6001600160a01b0385811682528416602082015260408101839052608060608201819052600090612c4c90830184612534565b9695505050505050565b600060208284031215612c6857600080fd5b8151611b2c8161245e565b600082612c8257612c82612996565b50069056fea26469706673582212207db4236724300562e2c61149d9ce81e8bd6f75919e3a240c212a88fc7374a54d64736f6c63430008140033",
  "linkReferences": {},
  "deployedLinkReferences": {}
}